{
  "_format": "hh-sol-artifact-1",
  "contractName": "XethLiqManager",
  "sourceName": "contracts/xethLiqManager.sol",
  "abi": [
    {
      "anonymous": false,
      "inputs": [
        {
          "indexed": true,
          "internalType": "address",
          "name": "previousOwner",
          "type": "address"
        },
        {
          "indexed": true,
          "internalType": "address",
          "name": "newOwner",
          "type": "address"
        }
      ],
      "name": "OwnershipTransferred",
      "type": "event"
    },
    {
      "inputs": [
        {
          "internalType": "contract IXEth",
          "name": "xeth_",
          "type": "address"
        },
        {
          "internalType": "contract IUniswapV2Router02",
          "name": "router_",
          "type": "address"
        },
        {
          "internalType": "contract IUniswapV2Factory",
          "name": "factory_",
          "type": "address"
        },
        {
          "internalType": "uint256",
          "name": "maxBP_",
          "type": "uint256"
        }
      ],
      "name": "initialize",
      "outputs": [],
      "stateMutability": "nonpayable",
      "type": "function"
    },
    {
      "inputs": [],
      "name": "initializePair",
      "outputs": [],
      "stateMutability": "nonpayable",
      "type": "function"
    },
    {
      "inputs": [],
      "name": "owner",
      "outputs": [
        {
          "internalType": "address",
          "name": "",
          "type": "address"
        }
      ],
      "stateMutability": "view",
      "type": "function"
    },
    {
      "inputs": [],
      "name": "rebalance",
      "outputs": [],
      "stateMutability": "nonpayable",
      "type": "function"
    },
    {
      "inputs": [],
      "name": "renounceOwnership",
      "outputs": [],
      "stateMutability": "nonpayable",
      "type": "function"
    },
    {
      "inputs": [
        {
          "internalType": "uint256",
          "name": "maxBP_",
          "type": "uint256"
        }
      ],
      "name": "setMaxBP",
      "outputs": [],
      "stateMutability": "nonpayable",
      "type": "function"
    },
    {
      "inputs": [
        {
          "internalType": "address",
          "name": "newOwner",
          "type": "address"
        }
      ],
      "name": "transferOwnership",
      "outputs": [],
      "stateMutability": "nonpayable",
      "type": "function"
    },
    {
      "inputs": [],
      "name": "updatePair",
      "outputs": [],
      "stateMutability": "nonpayable",
      "type": "function"
    }
  ],
  "bytecode": "0x608060405234801561001057600080fd5b50611e2c806100206000396000f3fe608060405234801561001057600080fd5b50600436106100885760003560e01c80637d7c2a1c1161005b5780637d7c2a1c146100c45780638da5cb5b146100cc578063cf756fdf146100f0578063f2fde38b1461012c57610088565b80632b9462591461008d5780634fab9e4c146100ac5780636acaf860146100b4578063715018a6146100bc575b600080fd5b6100aa600480360360208110156100a357600080fd5b5035610152565b005b6100aa6101f7565b6100aa6105bc565b6100aa610c90565b6100aa610d32565b6100d461180c565b604080516001600160a01b039092168252519081900360200190f35b6100aa6004803603608081101561010657600080fd5b506001600160a01b0381358116916020810135821691604082013516906060013561181b565b6100aa6004803603602081101561014257600080fd5b50356001600160a01b031661190a565b61015a611a03565b6065546001600160a01b039081169116146101aa576040805162461bcd60e51b81526020600482018190526024820152600080516020611d87833981519152604482015290519081900360640190fd5b61271081106101f2576040805162461bcd60e51b815260206004820152600f60248201526e6d6178425020746f6f206c6172676560881b604482015290519081900360640190fd5b609955565b609b54600160a01b900460ff16156102405760405162461bcd60e51b8152600401808060200182810382526022815260200180611dd56022913960400191505060405180910390fd5b609b805460ff60a01b1916600160a01b1790556099546097546000916127109161027c916001600160a01b03909116319063ffffffff611a0716565b8161028357fe5b60975491900491506001600160a01b031663979eb1376102aa83600263ffffffff611a0716565b306040518363ffffffff1660e01b815260040180838152602001826001600160a01b03166001600160a01b0316815260200192505050600060405180830381600087803b1580156102fa57600080fd5b505af115801561030e573d6000803e3d6000fd5b505060975460408051632e1a7d4d60e01b81526004810186905290516001600160a01b039092169350632e1a7d4d925060248082019260009290919082900301818387803b15801561035f57600080fd5b505af1158015610373573d6000803e3d6000fd5b50506097546098546040805163095ea7b360e01b81526001600160a01b0392831660048201526000196024820152905191909216935063095ea7b3925060448083019260209291908290030181600087803b1580156103d157600080fd5b505af11580156103e5573d6000803e3d6000fd5b505050506040513d60208110156103fb57600080fd5b50506098546097546040805163f305d71960e01b81526001600160a01b0392831660048201526024810185905260448101859052606481018590523060848201524260a48201529051919092169163f305d71991849160c48082019260609290919082900301818588803b15801561047257600080fd5b505af1158015610486573d6000803e3d6000fd5b50505050506040513d606081101561049d57600080fd5b5050609b54609754609854604080516315ab88c960e31b815290516001600160a01b039485169463e6a4390594811693169163ad5c4648916004808301926020929190829003018186803b1580156104f457600080fd5b505afa158015610508573d6000803e3d6000fd5b505050506040513d602081101561051e57600080fd5b5051604080516001600160e01b031960e086901b1681526001600160a01b039384166004820152929091166024830152516044808301926020929190829003018186803b15801561056e57600080fd5b505afa158015610582573d6000803e3d6000fd5b505050506040513d602081101561059857600080fd5b5051609a80546001600160a01b0319166001600160a01b0390921691909117905550565b6105c4611a03565b6065546001600160a01b03908116911614610614576040805162461bcd60e51b81526020600482018190526024820152600080516020611d87833981519152604482015290519081900360640190fd5b61061c610d32565b609a54604080516318160ddd60e01b815290516000926001600160a01b0316916318160ddd916004808301926020929190829003018186803b15801561066157600080fd5b505afa158015610675573d6000803e3d6000fd5b505050506040513d602081101561068b57600080fd5b5051609a54604080516370a0823160e01b8152306004820152905161078d926001600160a01b0316916370a08231916024808301926020929190829003018186803b1580156106d957600080fd5b505afa1580156106ed573d6000803e3d6000fd5b505050506040513d602081101561070357600080fd5b5051609754609a54604080516370a0823160e01b81526001600160a01b039283166004820152905191909216916370a08231916024808301926020929190829003018186803b15801561075557600080fd5b505afa158015610769573d6000803e3d6000fd5b505050506040513d602081101561077f57600080fd5b50519063ffffffff611a0716565b8161079457fe5b60975491900491506000906002906107bd9084906001600160a01b03163163ffffffff611a7016565b816107c457fe5b04905080821115610adc5760006107e1838363ffffffff611abf16565b609854609754609a54604080516318160ddd60e01b815290519495506001600160a01b03938416946302751cec9493841693909216916318160ddd91600480820192602092909190829003018186803b15801561083d57600080fd5b505afa158015610851573d6000803e3d6000fd5b505050506040513d602081101561086757600080fd5b5051609754609a54604080516370a0823160e01b81526001600160a01b03928316600482015290516108bc93899316916370a08231916024808301926020929190829003018186803b15801561075557600080fd5b816108c357fe5b046108d6856103e863ffffffff611abf16565b6108e8866103e863ffffffff611abf16565b604080516001600160e01b031960e088901b1681526001600160a01b0390951660048601526024850193909352604484019190915260648301523060848301524260a4830152805160c4808401938290030181600087803b15801561094c57600080fd5b505af1158015610960573d6000803e3d6000fd5b505050506040513d604081101561097657600080fd5b505060975460408051630d0e30db60e41b815290516001600160a01b039092169163d0e30db0914791600480830192600092919082900301818588803b1580156109bf57600080fd5b505af11580156109d3573d6000803e3d6000fd5b5050609754604080516370a0823160e01b815230600482015290516001600160a01b03909216945063a9059cbb93506000925084916370a0823191602480820192602092909190829003018186803b158015610a2e57600080fd5b505afa158015610a42573d6000803e3d6000fd5b505050506040513d6020811015610a5857600080fd5b5051604080516001600160e01b031960e086901b1681526001600160a01b03909316600484015260248301919091525160448083019260209291908290030181600087803b158015610aa957600080fd5b505af1158015610abd573d6000803e3d6000fd5b505050506040513d6020811015610ad357600080fd5b50610c8c915050565b80821015610c8c576000610af6828463ffffffff611abf16565b6097549091506001600160a01b031663979eb137610b1b83600263ffffffff611a0716565b306040518363ffffffff1660e01b815260040180838152602001826001600160a01b03166001600160a01b0316815260200192505050600060405180830381600087803b158015610b6b57600080fd5b505af1158015610b7f573d6000803e3d6000fd5b505060975460408051632e1a7d4d60e01b81526004810186905290516001600160a01b039092169350632e1a7d4d925060248082019260009290919082900301818387803b158015610bd057600080fd5b505af1158015610be4573d6000803e3d6000fd5b50506098546097546040805163f305d71960e01b81526001600160a01b0392831660048201526024810187905260448101879052606481018790523060848201524260a4820152905191909216935063f305d7199250849160c48082019260609290919082900301818588803b158015610c5d57600080fd5b505af1158015610c71573d6000803e3d6000fd5b50505050506040513d6060811015610c8857600080fd5b5050505b5050565b610c98611a03565b6065546001600160a01b03908116911614610ce8576040805162461bcd60e51b81526020600482018190526024820152600080516020611d87833981519152604482015290519081900360640190fd5b6065546040516000916001600160a01b0316907f8be0079c531659141344cd1fd0a4f28419497f9722a3daafe3b4186f6b6457e0908390a3606580546001600160a01b0319169055565b610d3a611a03565b6065546001600160a01b03908116911614610d8a576040805162461bcd60e51b81526020600482018190526024820152600080516020611d87833981519152604482015290519081900360640190fd5b609754609a54604080516370a0823160e01b81526001600160a01b039283166004820152905160009392909216916370a0823191602480820192602092909190829003018186803b158015610dde57600080fd5b505afa158015610df2573d6000803e3d6000fd5b505050506040513d6020811015610e0857600080fd5b5051609854604080516315ab88c960e31b815290519293506000926001600160a01b039092169163ad5c464891600480820192602092909190829003018186803b158015610e5557600080fd5b505afa158015610e69573d6000803e3d6000fd5b505050506040513d6020811015610e7f57600080fd5b5051609a54604080516370a0823160e01b81526001600160a01b039283166004820152905191909216916370a08231916024808301926020929190829003018186803b158015610ece57600080fd5b505afa158015610ee2573d6000803e3d6000fd5b505050506040513d6020811015610ef857600080fd5b50516040805160028082526060808301845293945090916020830190803683370190505090508183111561137157609860009054906101000a90046001600160a01b03166001600160a01b031663ad5c46486040518163ffffffff1660e01b815260040160206040518083038186803b158015610f7457600080fd5b505afa158015610f88573d6000803e3d6000fd5b505050506040513d6020811015610f9e57600080fd5b505181518290600090610fad57fe5b6001600160a01b039283166020918202929092010152609754825191169082906001908110610fd857fe5b6001600160a01b039092166020928302919091019091015260006002611004858563ffffffff611abf16565b8161100b57fe5b6097546040805163979eb13760e01b8152939092046004840181905230602485015291519193506001600160a01b03169163979eb13791604480830192600092919082900301818387803b15801561106257600080fd5b505af1158015611076573d6000803e3d6000fd5b505060975460408051632e1a7d4d60e01b81526004810186905290516001600160a01b039092169350632e1a7d4d925060248082019260009290919082900301818387803b1580156110c757600080fd5b505af11580156110db573d6000803e3d6000fd5b50506098546001600160a01b03169150637ff36ab5905082611105816103e863ffffffff611abf16565b856000426040518663ffffffff1660e01b81526004018085815260200180602001846001600160a01b03166001600160a01b03168152602001838152602001828103825285818151815260200191508051906020019060200280838360005b8381101561117c578181015183820152602001611164565b50505050905001955050505050506000604051808303818588803b1580156111a357600080fd5b505af11580156111b7573d6000803e3d6000fd5b50505050506040513d6000823e601f3d908101601f1916820160405260208110156111e157600080fd5b810190808051604051939291908464010000000082111561120157600080fd5b90830190602082018581111561121657600080fd5b825186602082028301116401000000008211171561123357600080fd5b82525081516020918201928201910280838360005b83811015611260578181015183820152602001611248565b505050509190910160408181526097546370a0823160e01b835230600484015290516001600160a01b03909116965063a9059cbb9550600094508693506370a0823192506024808301926020929190829003018186803b1580156112c357600080fd5b505afa1580156112d7573d6000803e3d6000fd5b505050506040513d60208110156112ed57600080fd5b5051604080516001600160e01b031960e086901b1681526001600160a01b03909316600484015260248301919091525160448083019260209291908290030181600087803b15801561133e57600080fd5b505af1158015611352573d6000803e3d6000fd5b505050506040513d602081101561136857600080fd5b50611807915050565b818310156118075760975481516001600160a01b0390911690829060009061139557fe5b6001600160a01b03928316602091820292909201810191909152609854604080516315ab88c960e31b81529051919093169263ad5c4648926004808301939192829003018186803b1580156113e957600080fd5b505afa1580156113fd573d6000803e3d6000fd5b505050506040513d602081101561141357600080fd5b505181518290600190811061142457fe5b6001600160a01b0392831660209182029290920101526097546040805163979eb13760e01b81526002878703046004820181905230602483015291519193929092169163979eb13791604480830192600092919082900301818387803b15801561148d57600080fd5b505af11580156114a1573d6000803e3d6000fd5b505060975460408051632e1a7d4d60e01b81526004810186905290516001600160a01b039092169350632e1a7d4d925060248082019260009290919082900301818387803b1580156114f257600080fd5b505af1158015611506573d6000803e3d6000fd5b50506098546001600160a01b031691506318cbafe5905082611530816103e863ffffffff611abf16565b8530426040518663ffffffff1660e01b81526004018086815260200185815260200180602001846001600160a01b03166001600160a01b03168152602001838152602001828103825285818151815260200191508051906020019060200280838360005b838110156115ac578181015183820152602001611594565b505050509050019650505050505050600060405180830381600087803b1580156115d557600080fd5b505af11580156115e9573d6000803e3d6000fd5b505050506040513d6000823e601f3d908101601f19168201604052602081101561161257600080fd5b810190808051604051939291908464010000000082111561163257600080fd5b90830190602082018581111561164757600080fd5b825186602082028301116401000000008211171561166457600080fd5b82525081516020918201928201910280838360005b83811015611691578181015183820152602001611679565b5050505090500160405250505050609760009054906101000a90046001600160a01b03166001600160a01b031663d0e30db0476040518263ffffffff1660e01b81526004016000604051808303818588803b1580156116ef57600080fd5b505af1158015611703573d6000803e3d6000fd5b5050609754604080516370a0823160e01b815230600482015290516001600160a01b03909216945063a9059cbb93506000925084916370a0823191602480820192602092909190829003018186803b15801561175e57600080fd5b505afa158015611772573d6000803e3d6000fd5b505050506040513d602081101561178857600080fd5b5051604080516001600160e01b031960e086901b1681526001600160a01b03909316600484015260248301919091525160448083019260209291908290030181600087803b1580156117d957600080fd5b505af11580156117ed573d6000803e3d6000fd5b505050506040513d602081101561180357600080fd5b5050505b505050565b6065546001600160a01b031690565b600054610100900460ff16806118345750611834611b0f565b80611842575060005460ff16155b61187d5760405162461bcd60e51b815260040180806020018281038252602e815260200180611da7602e913960400191505060405180910390fd5b600054610100900460ff161580156118a8576000805460ff1961ff0019909116610100171660011790555b6118b0611b15565b609780546001600160a01b038088166001600160a01b03199283161790925560988054878416908316179055609b80549286169290911691909117905560998290558015610c88576000805461ff00191690555050505050565b611912611a03565b6065546001600160a01b03908116911614611962576040805162461bcd60e51b81526020600482018190526024820152600080516020611d87833981519152604482015290519081900360640190fd5b6001600160a01b0381166119a75760405162461bcd60e51b8152600401808060200182810382526026815260200180611d616026913960400191505060405180910390fd5b6065546040516001600160a01b038084169216907f8be0079c531659141344cd1fd0a4f28419497f9722a3daafe3b4186f6b6457e090600090a3606580546001600160a01b0319166001600160a01b0392909216919091179055565b3390565b6000811580611a2257505080820282828281611a1f57fe5b04145b611a6a576040805162461bcd60e51b815260206004820152601460248201527364732d6d6174682d6d756c2d6f766572666c6f7760601b604482015290519081900360640190fd5b92915050565b80820182811015611a6a576040805162461bcd60e51b815260206004820152601460248201527364732d6d6174682d6164642d6f766572666c6f7760601b604482015290519081900360640190fd5b80820382811115611a6a576040805162461bcd60e51b815260206004820152601560248201527464732d6d6174682d7375622d756e646572666c6f7760581b604482015290519081900360640190fd5b303b1590565b600054610100900460ff1680611b2e5750611b2e611b0f565b80611b3c575060005460ff16155b611b775760405162461bcd60e51b815260040180806020018281038252602e815260200180611da7602e913960400191505060405180910390fd5b600054610100900460ff16158015611ba2576000805460ff1961ff0019909116610100171660011790555b611baa611bc7565b611bb2611c67565b8015611bc4576000805461ff00191690555b50565b600054610100900460ff1680611be05750611be0611b0f565b80611bee575060005460ff16155b611c295760405162461bcd60e51b815260040180806020018281038252602e815260200180611da7602e913960400191505060405180910390fd5b600054610100900460ff16158015611bb2576000805460ff1961ff0019909116610100171660011790558015611bc4576000805461ff001916905550565b600054610100900460ff1680611c805750611c80611b0f565b80611c8e575060005460ff16155b611cc95760405162461bcd60e51b815260040180806020018281038252602e815260200180611da7602e913960400191505060405180910390fd5b600054610100900460ff16158015611cf4576000805460ff1961ff0019909116610100171660011790555b6000611cfe611a03565b606580546001600160a01b0319166001600160a01b038316908117909155604051919250906000907f8be0079c531659141344cd1fd0a4f28419497f9722a3daafe3b4186f6b6457e0908290a3508015611bc4576000805461ff00191690555056fe4f776e61626c653a206e6577206f776e657220697320746865207a65726f20616464726573734f776e61626c653a2063616c6c6572206973206e6f7420746865206f776e6572436f6e747261637420696e7374616e63652068617320616c7265616479206265656e20696e697469616c697a6564776574682f78657468207061697220616c726561647920696e697469616c697a6564a2646970667358221220813098fd648b8cc5ae79a772de0f911cb23c027380ca0e74a3521f8b2b19769e64736f6c63430006060033",
  "linkReferences": {},
  "deployedLinkReferences": {}
}