{
  "_format": "hh-sol-artifact-1",
  "contractName": "ERC20TransferBlacklistCheckpointWhitelist",
  "sourceName": "contracts/ERC20/ERC20TransferBlacklistCheckpointWhitelist.sol",
  "abi": [
    {
      "inputs": [
        {
          "internalType": "string",
          "name": "name_",
          "type": "string"
        },
        {
          "internalType": "string",
          "name": "symbol_",
          "type": "string"
        },
        {
          "internalType": "uint256",
          "name": "amount",
          "type": "uint256"
        },
        {
          "internalType": "address",
          "name": "blacklistManager_",
          "type": "address"
        },
        {
          "internalType": "address",
          "name": "whitelistManager_",
          "type": "address"
        }
      ],
      "stateMutability": "nonpayable",
      "type": "constructor"
    },
    {
      "anonymous": false,
      "inputs": [
        {
          "indexed": true,
          "internalType": "address",
          "name": "owner",
          "type": "address"
        },
        {
          "indexed": true,
          "internalType": "address",
          "name": "spender",
          "type": "address"
        },
        {
          "indexed": false,
          "internalType": "uint256",
          "name": "value",
          "type": "uint256"
        }
      ],
      "name": "Approval",
      "type": "event"
    },
    {
      "anonymous": false,
      "inputs": [
        {
          "indexed": true,
          "internalType": "address",
          "name": "from",
          "type": "address"
        },
        {
          "indexed": true,
          "internalType": "address",
          "name": "to",
          "type": "address"
        },
        {
          "indexed": false,
          "internalType": "uint256",
          "name": "value",
          "type": "uint256"
        }
      ],
      "name": "Transfer",
      "type": "event"
    },
    {
      "inputs": [
        {
          "internalType": "address",
          "name": "owner",
          "type": "address"
        },
        {
          "internalType": "address",
          "name": "spender",
          "type": "address"
        }
      ],
      "name": "allowance",
      "outputs": [
        {
          "internalType": "uint256",
          "name": "",
          "type": "uint256"
        }
      ],
      "stateMutability": "view",
      "type": "function"
    },
    {
      "inputs": [
        {
          "internalType": "address",
          "name": "spender",
          "type": "address"
        },
        {
          "internalType": "uint256",
          "name": "amount",
          "type": "uint256"
        }
      ],
      "name": "approve",
      "outputs": [
        {
          "internalType": "bool",
          "name": "",
          "type": "bool"
        }
      ],
      "stateMutability": "nonpayable",
      "type": "function"
    },
    {
      "inputs": [
        {
          "internalType": "address",
          "name": "account",
          "type": "address"
        }
      ],
      "name": "balanceOf",
      "outputs": [
        {
          "internalType": "uint256",
          "name": "",
          "type": "uint256"
        }
      ],
      "stateMutability": "view",
      "type": "function"
    },
    {
      "inputs": [
        {
          "internalType": "address",
          "name": "_owner",
          "type": "address"
        },
        {
          "internalType": "uint256",
          "name": "_blockNumber",
          "type": "uint256"
        }
      ],
      "name": "balanceOfAt",
      "outputs": [
        {
          "internalType": "uint256",
          "name": "",
          "type": "uint256"
        }
      ],
      "stateMutability": "view",
      "type": "function"
    },
    {
      "inputs": [
        {
          "internalType": "address",
          "name": "_owner",
          "type": "address"
        },
        {
          "internalType": "uint256",
          "name": "_blockNumber",
          "type": "uint256"
        }
      ],
      "name": "balanceWhitelistedOfAt",
      "outputs": [
        {
          "internalType": "uint256",
          "name": "",
          "type": "uint256"
        }
      ],
      "stateMutability": "view",
      "type": "function"
    },
    {
      "inputs": [],
      "name": "blacklistManager",
      "outputs": [
        {
          "internalType": "address",
          "name": "",
          "type": "address"
        }
      ],
      "stateMutability": "view",
      "type": "function"
    },
    {
      "inputs": [
        {
          "internalType": "address",
          "name": "",
          "type": "address"
        }
      ],
      "name": "checkpointWhitelist",
      "outputs": [
        {
          "internalType": "bool",
          "name": "",
          "type": "bool"
        }
      ],
      "stateMutability": "view",
      "type": "function"
    },
    {
      "inputs": [],
      "name": "decimals",
      "outputs": [
        {
          "internalType": "uint8",
          "name": "",
          "type": "uint8"
        }
      ],
      "stateMutability": "view",
      "type": "function"
    },
    {
      "inputs": [
        {
          "internalType": "address",
          "name": "spender",
          "type": "address"
        },
        {
          "internalType": "uint256",
          "name": "subtractedValue",
          "type": "uint256"
        }
      ],
      "name": "decreaseAllowance",
      "outputs": [
        {
          "internalType": "bool",
          "name": "",
          "type": "bool"
        }
      ],
      "stateMutability": "nonpayable",
      "type": "function"
    },
    {
      "inputs": [
        {
          "internalType": "address",
          "name": "spender",
          "type": "address"
        },
        {
          "internalType": "uint256",
          "name": "addedValue",
          "type": "uint256"
        }
      ],
      "name": "increaseAllowance",
      "outputs": [
        {
          "internalType": "bool",
          "name": "",
          "type": "bool"
        }
      ],
      "stateMutability": "nonpayable",
      "type": "function"
    },
    {
      "inputs": [],
      "name": "name",
      "outputs": [
        {
          "internalType": "string",
          "name": "",
          "type": "string"
        }
      ],
      "stateMutability": "view",
      "type": "function"
    },
    {
      "inputs": [
        {
          "internalType": "address",
          "name": "",
          "type": "address"
        }
      ],
      "name": "receiveBlacklist",
      "outputs": [
        {
          "internalType": "bool",
          "name": "",
          "type": "bool"
        }
      ],
      "stateMutability": "view",
      "type": "function"
    },
    {
      "inputs": [
        {
          "internalType": "address",
          "name": "",
          "type": "address"
        }
      ],
      "name": "sendBlacklist",
      "outputs": [
        {
          "internalType": "bool",
          "name": "",
          "type": "bool"
        }
      ],
      "stateMutability": "view",
      "type": "function"
    },
    {
      "inputs": [
        {
          "internalType": "address",
          "name": "holder",
          "type": "address"
        },
        {
          "internalType": "bool",
          "name": "isWhitelisted",
          "type": "bool"
        }
      ],
      "name": "setCheckpointWhitelist",
      "outputs": [],
      "stateMutability": "nonpayable",
      "type": "function"
    },
    {
      "inputs": [
        {
          "internalType": "address",
          "name": "recipient",
          "type": "address"
        },
        {
          "internalType": "bool",
          "name": "isBlacklisted",
          "type": "bool"
        }
      ],
      "name": "setReceiveBlacklist",
      "outputs": [],
      "stateMutability": "nonpayable",
      "type": "function"
    },
    {
      "inputs": [
        {
          "internalType": "address",
          "name": "sender",
          "type": "address"
        },
        {
          "internalType": "bool",
          "name": "isBlacklisted",
          "type": "bool"
        }
      ],
      "name": "setSendBlacklist",
      "outputs": [],
      "stateMutability": "nonpayable",
      "type": "function"
    },
    {
      "inputs": [],
      "name": "symbol",
      "outputs": [
        {
          "internalType": "string",
          "name": "",
          "type": "string"
        }
      ],
      "stateMutability": "view",
      "type": "function"
    },
    {
      "inputs": [],
      "name": "totalSupply",
      "outputs": [
        {
          "internalType": "uint256",
          "name": "",
          "type": "uint256"
        }
      ],
      "stateMutability": "view",
      "type": "function"
    },
    {
      "inputs": [
        {
          "internalType": "uint256",
          "name": "_blockNumber",
          "type": "uint256"
        }
      ],
      "name": "totalWhitelistedSupplyAt",
      "outputs": [
        {
          "internalType": "uint256",
          "name": "",
          "type": "uint256"
        }
      ],
      "stateMutability": "view",
      "type": "function"
    },
    {
      "inputs": [
        {
          "internalType": "address",
          "name": "recipient",
          "type": "address"
        },
        {
          "internalType": "uint256",
          "name": "amount",
          "type": "uint256"
        }
      ],
      "name": "transfer",
      "outputs": [
        {
          "internalType": "bool",
          "name": "",
          "type": "bool"
        }
      ],
      "stateMutability": "nonpayable",
      "type": "function"
    },
    {
      "inputs": [
        {
          "internalType": "address",
          "name": "sender",
          "type": "address"
        },
        {
          "internalType": "address",
          "name": "recipient",
          "type": "address"
        },
        {
          "internalType": "uint256",
          "name": "amount",
          "type": "uint256"
        }
      ],
      "name": "transferFrom",
      "outputs": [
        {
          "internalType": "bool",
          "name": "",
          "type": "bool"
        }
      ],
      "stateMutability": "nonpayable",
      "type": "function"
    },
    {
      "inputs": [
        {
          "internalType": "address",
          "name": "whitelistManager_",
          "type": "address"
        }
      ],
      "name": "transferWhitelistManager",
      "outputs": [],
      "stateMutability": "nonpayable",
      "type": "function"
    },
    {
      "inputs": [
        {
          "internalType": "address[]",
          "name": "holders",
          "type": "address[]"
        }
      ],
      "name": "whitelistAll",
      "outputs": [],
      "stateMutability": "nonpayable",
      "type": "function"
    },
    {
      "inputs": [],
      "name": "whitelistManager",
      "outputs": [
        {
          "internalType": "address",
          "name": "",
          "type": "address"
        }
      ],
      "stateMutability": "view",
      "type": "function"
    }
  ],
  "bytecode": "0x60806040523480156200001157600080fd5b5060405162001d1e38038062001d1e833981810160405260a08110156200003757600080fd5b81019080805160405193929190846401000000008211156200005857600080fd5b9083019060208201858111156200006e57600080fd5b82516401000000008111828201881017156200008957600080fd5b82525081516020918201929091019080838360005b83811015620000b85781810151838201526020016200009e565b50505050905090810190601f168015620000e65780820380516001836020036101000a031916815260200191505b50604052602001805160405193929190846401000000008211156200010a57600080fd5b9083019060208201858111156200012057600080fd5b82516401000000008111828201881017156200013b57600080fd5b82525081516020918201929091019080838360005b838110156200016a57818101518382015260200162000150565b50505050905090810190601f168015620001985780820380516001836020036101000a031916815260200191505b506040908152602082810151918301516060909301518751929550929350620001c791600391880190620007a5565b508351620001dd906004906020870190620007a5565b5060058054601260ff1990911617610100600160a81b0319166101006001600160a01b038581169190910291909117909155600680546001600160a01b0319169183169190911790556200023233846200023d565b50505050506200084a565b6001600160a01b03821662000299576040805162461bcd60e51b815260206004820152601f60248201527f45524332303a206d696e7420746f20746865207a65726f206164647265737300604482015290519081900360640190fd5b620002b0600083836001600160e01b036200035516565b620002cc816002546200060660201b62000f021790919060201c565b6002556001600160a01b03821660009081526020818152604090912054620002ff91839062000f0262000606821b17901c565b6001600160a01b0383166000818152602081815260408083209490945583518581529351929391927fddf252ad1be2c89b69c2b068fc378daa952ba7f163c4a11628f55a4df523b3ef9281900390910190a35050565b6001600160a01b0383166000908152600a60205260409020620003ae906200039f836200038b876001600160e01b036200066516565b6200068060201b62000eb21790919060201c565b6001600160e01b03620006d916565b6001600160a01b0382166000908152600a60205260409020620003f8906200039f83620003e4866001600160e01b036200066516565b6200060660201b62000f021790919060201c565b6001600160a01b03831660009081526009602052604090205460ff1680156200043a57506001600160a01b03821660009081526009602052604090205460ff16155b15620004b4576001600160a01b0383166000908152600b6020526040902062000476906200039f836200038b876001600160e01b036200066516565b6200049281600c546200068060201b62000eb21790919060201c565b600c819055620004ae90600d906001600160e01b03620006d916565b62000601565b6001600160a01b03831660009081526009602052604090205460ff16158015620004f657506001600160a01b03821660009081526009602052604090205460ff165b156200054e576001600160a01b0382166000908152600b6020526040902062000532906200039f83620003e4866001600160e01b036200066516565b6200049281600c546200060660201b62000f021790919060201c565b6001600160a01b03831660009081526009602052604090205460ff1680156200058f57506001600160a01b03821660009081526009602052604090205460ff165b1562000601576001600160a01b0383166000908152600b60205260409020620005cb906200039f836200038b876001600160e01b036200066516565b6001600160a01b0382166000908152600b6020526040902062000601906200039f83620003e4866001600160e01b036200066516565b505050565b808201828110156200065f576040805162461bcd60e51b815260206004820152601460248201527f64732d6d6174682d6164642d6f766572666c6f77000000000000000000000000604482015290519081900360640190fd5b92915050565b6001600160a01b031660009081526020819052604090205490565b808203828111156200065f576040805162461bcd60e51b815260206004820152601560248201527f64732d6d6174682d7375622d756e646572666c6f770000000000000000000000604482015290519081900360640190fd5b815415806200070f57508154439083906000198101908110620006f857fe5b6000918252602090912001546001600160801b0316105b15620007665781546000908390600181019081106200072a57fe5b600091825260209091200180546001600160801b03848116600160801b024382166001600160801b0319909316929092171617905550620007a1565b8154600090839060001981019081106200077c57fe5b600091825260209091200180546001600160801b03808516600160801b029116179055505b5050565b828054600181600116156101000203166002900490600052602060002090601f016020900481019282601f10620007e857805160ff191683800117855562000818565b8280016001018555821562000818579182015b8281111562000818578251825591602001919060010190620007fb565b50620008269291506200082a565b5090565b6200084791905b8082111562000826576000815560010162000831565b90565b6114c4806200085a6000396000f3fe608060405234801561001057600080fd5b50600436106101585760003560e01c80634fc94d94116100c3578063d1138d7d1161007c578063d1138d7d146104d0578063d9dbf657146104f6578063daa15efd146104fe578063db8989d91461052c578063dd62ed3e14610552578063e8798ff31461058057610158565b80634fc94d94146103f857806370a082311461041e57806395d89b4114610444578063a457c2d71461044c578063a9059cbb14610478578063bf928871146104a457610158565b806323b872dd1161011557806323b872dd146102fa57806326563b4014610330578063313ce56714610354578063326e30701461037257806339509351146103a05780634ee2cd7e146103cc57610158565b806306fdde031461015d578063095ea7b3146101da578063103f8b8e1461021a57806318160ddd1461024a5780631a80944314610264578063213b62f91461028a575b600080fd5b61016561059d565b6040805160208082528351818301528351919283929083019185019080838360005b8381101561019f578181015183820152602001610187565b50505050905090810190601f1680156101cc5780820380516001836020036101000a031916815260200191505b509250505060405180910390f35b610206600480360360408110156101f057600080fd5b506001600160a01b038135169060200135610633565b604080519115158252519081900360200190f35b6102486004803603604081101561023057600080fd5b506001600160a01b0381351690602001351515610651565b005b6102526106c5565b60408051918252519081900360200190f35b6102066004803603602081101561027a57600080fd5b50356001600160a01b03166106cb565b610248600480360360208110156102a057600080fd5b8101906020810181356401000000008111156102bb57600080fd5b8201836020820111156102cd57600080fd5b803590602001918460208302840111640100000000831117156102ef57600080fd5b5090925090506106e0565b6102066004803603606081101561031057600080fd5b506001600160a01b03813581169160208101359091169060400135610784565b6103386107f9565b604080516001600160a01b039092168252519081900360200190f35b61035c610808565b6040805160ff9092168252519081900360200190f35b6102486004803603604081101561038857600080fd5b506001600160a01b0381351690602001351515610811565b610206600480360360408110156103b657600080fd5b506001600160a01b03813516906020013561088a565b610252600480360360408110156103e257600080fd5b506001600160a01b0381351690602001356108de565b6102066004803603602081101561040e57600080fd5b50356001600160a01b031661092c565b6102526004803603602081101561043457600080fd5b50356001600160a01b0316610941565b610165610960565b6102066004803603604081101561046257600080fd5b506001600160a01b0381351690602001356109c1565b6102066004803603604081101561048e57600080fd5b506001600160a01b038135169060200135610a15565b610252600480360360408110156104ba57600080fd5b506001600160a01b038135169060200135610a29565b610206600480360360208110156104e657600080fd5b50356001600160a01b0316610a70565b610338610a85565b6102486004803603604081101561051457600080fd5b506001600160a01b0381351690602001351515610a99565b6102486004803603602081101561054257600080fd5b50356001600160a01b0316610b12565b6102526004803603604081101561056857600080fd5b506001600160a01b0381358116916020013516610b7d565b6102526004803603602081101561059657600080fd5b5035610ba8565b60038054604080516020601f60026000196101006001881615020190951694909404938401819004810282018101909252828152606093909290918301828280156106295780601f106105fe57610100808354040283529160200191610629565b820191906000526020600020905b81548152906001019060200180831161060c57829003601f168201915b5050505050905090565b6000610647610640610bc5565b8484610bc9565b5060015b92915050565b6006546001600160a01b0316331461069a5760405162461bcd60e51b81526004018080602001828103825260498152602001806113946049913960600191505060405180910390fd5b6001600160a01b03919091166000908152600960205260409020805460ff1916911515919091179055565b60025490565b60086020526000908152604090205460ff1681565b6006546001600160a01b031633146107295760405162461bcd60e51b81526004018080602001828103825260498152602001806113946049913960600191505060405180910390fd5b60005b8181101561077f5760016009600085858581811061074657fe5b602090810292909201356001600160a01b0316835250810191909152604001600020805460ff191691151591909117905560010161072c565b505050565b6000610791848484610cb5565b6107ef8461079d610bc5565b6001600160a01b03871660009081526001602052604081206107ea918791906107c4610bc5565b6001600160a01b031681526020810191909152604001600020549063ffffffff610eb216565b610bc9565b5060019392505050565b6006546001600160a01b031681565b60055460ff1690565b60055461010090046001600160a01b0316331461085f5760405162461bcd60e51b81526004018080602001828103825260498152602001806113946049913960600191505060405180910390fd5b6001600160a01b03919091166000908152600760205260409020805460ff1916911515919091179055565b6000610647610897610bc5565b846107ea85600160006108a8610bc5565b6001600160a01b03908116825260208083019390935260409182016000908120918c16815292529020549063ffffffff610f0216565b6001600160a01b0382166000908152600a60205260408120546109035750600061064b565b6001600160a01b0383166000908152600a602052604090206109259083610f51565b9392505050565b60096020526000908152604090205460ff1681565b6001600160a01b0381166000908152602081905260409020545b919050565b60048054604080516020601f60026000196101006001881615020190951694909404938401819004810282018101909252828152606093909290918301828280156106295780601f106105fe57610100808354040283529160200191610629565b60006106476109ce610bc5565b846107ea85600160006109df610bc5565b6001600160a01b03908116825260208083019390935260409182016000908120918c16815292529020549063ffffffff610eb216565b6000610647610a22610bc5565b8484610cb5565b6001600160a01b0382166000908152600b6020526040812054610a4e5750600061064b565b6001600160a01b0383166000908152600b602052604090206109259083610f51565b60076020526000908152604090205460ff1681565b60055461010090046001600160a01b031681565b60055461010090046001600160a01b03163314610ae75760405162461bcd60e51b81526004018080602001828103825260498152602001806113946049913960600191505060405180910390fd5b6001600160a01b03919091166000908152600860205260409020805460ff1916911515919091179055565b6006546001600160a01b03163314610b5b5760405162461bcd60e51b81526004018080602001828103825260498152602001806113946049913960600191505060405180910390fd5b600680546001600160a01b0319166001600160a01b0392909216919091179055565b6001600160a01b03918216600090815260016020908152604080832093909416825291909152205490565b600d54600090610bba5750600061095b565b61064b600d83610f51565b3390565b6001600160a01b038316610c0e5760405162461bcd60e51b81526004018080602001828103825260248152602001806114496024913960400191505060405180910390fd5b6001600160a01b038216610c535760405162461bcd60e51b81526004018080602001828103825260228152602001806113dd6022913960400191505060405180910390fd5b6001600160a01b03808416600081815260016020908152604080832094871680845294825291829020859055815185815291517f8c5be1e5ebec7d5bd14f71427d1e84f3dd0314c0f7b2291e5b200ac8c7c3b9259281900390910190a3505050565b6001600160a01b038316610cfa5760405162461bcd60e51b81526004018080602001828103825260258152602001806114246025913960400191505060405180910390fd5b6001600160a01b038216610d3f5760405162461bcd60e51b81526004018080602001828103825260238152602001806113716023913960400191505060405180910390fd5b6001600160a01b03831660009081526007602052604090205460ff1615610d975760405162461bcd60e51b815260040180806020018281038252602281526020018061146d6022913960400191505060405180910390fd5b6001600160a01b03821660009081526008602052604090205460ff1615610def5760405162461bcd60e51b81526004018080602001828103825260258152602001806113ff6025913960400191505060405180910390fd5b610dfa838383611081565b6001600160a01b038316600090815260208190526040902054610e23908263ffffffff610eb216565b6001600160a01b038085166000908152602081905260408082209390935590841681522054610e58908263ffffffff610f0216565b6001600160a01b038084166000818152602081815260409182902094909455805185815290519193928716927fddf252ad1be2c89b69c2b068fc378daa952ba7f163c4a11628f55a4df523b3ef92918290030190a3505050565b8082038281111561064b576040805162461bcd60e51b815260206004820152601560248201527464732d6d6174682d7375622d756e646572666c6f7760581b604482015290519081900360640190fd5b8082018281101561064b576040805162461bcd60e51b815260206004820152601460248201527364732d6d6174682d6164642d6f766572666c6f7760601b604482015290519081900360640190fd5b8154600090610f625750600061064b565b825483906000198101908110610f7457fe5b6000918252602090912001546001600160801b03168210610fc457825483906000198101908110610fa157fe5b600091825260209091200154600160801b90046001600160801b0316905061064b565b82600081548110610fd157fe5b6000918252602090912001546001600160801b0316821015610ff55750600061064b565b8254600090600019015b8181111561105057600060026001838501010490508486828154811061102157fe5b6000918252602090912001546001600160801b0316116110435780925061104a565b6001810391505b50610fff565b84828154811061105c57fe5b600091825260209091200154600160801b90046001600160801b031695945050505050565b6001600160a01b0383166000908152600a602052604090206110bb906110b6836110aa87610941565b9063ffffffff610eb216565b6112a1565b6001600160a01b0382166000908152600a602052604090206110f0906110b6836110e486610941565b9063ffffffff610f0216565b6001600160a01b03831660009081526009602052604090205460ff16801561113157506001600160a01b03821660009081526009602052604090205460ff16155b15611188576001600160a01b0383166000908152600b6020526040902061115f906110b6836110aa87610941565b600c54611172908263ffffffff610eb216565b600c81905561118390600d906112a1565b61077f565b6001600160a01b03831660009081526009602052604090205460ff161580156111c957506001600160a01b03821660009081526009602052604090205460ff165b1561120a576001600160a01b0382166000908152600b602052604090206111f7906110b6836110e486610941565b600c54611172908263ffffffff610f0216565b6001600160a01b03831660009081526009602052604090205460ff16801561124a57506001600160a01b03821660009081526009602052604090205460ff165b1561077f576001600160a01b0383166000908152600b60205260409020611278906110b6836110aa87610941565b6001600160a01b0382166000908152600b6020526040902061077f906110b6836110e486610941565b815415806112d5575081544390839060001981019081106112be57fe5b6000918252602090912001546001600160801b0316105b156113325781546000908390600181019081106112ee57fe5b600091825260209091200180546001600160801b03848116600160801b024382166fffffffffffffffffffffffffffffffff1990931692909217161790555061136c565b81546000908390600019810190811061134757fe5b600091825260209091200180546001600160801b03808516600160801b029116179055505b505056fe45524332303a207472616e7366657220746f20746865207a65726f206164647265737345524332305472616e73666572426c61636b6c697374436865636b706f696e7457686974656c6973743a2073656e646572206973206e6f7420626c61636b6c6973744d616e6167657245524332303a20617070726f766520746f20746865207a65726f20616464726573734552433230426c61636b6c6973743a20726563697069656e7420626c61636b6c697374656445524332303a207472616e736665722066726f6d20746865207a65726f206164647265737345524332303a20617070726f76652066726f6d20746865207a65726f20616464726573734552433230426c61636b6c6973743a2073656e64657220626c61636b6c6973746564a2646970667358221220a63b1a5b81bcbffce27de3b03793223c9f97b0840c3a0abe8cd2eeb4f787893c64736f6c63430006060033",
  "linkReferences": {},
  "deployedLinkReferences": {}
}