{
  "_format": "hh-sol-artifact-1",
  "contractName": "XLOCKER",
  "sourceName": "contracts/xlocker.sol",
  "abi": [
    {
      "anonymous": false,
      "inputs": [
        {
          "indexed": true,
          "internalType": "address",
          "name": "previousOwner",
          "type": "address"
        },
        {
          "indexed": true,
          "internalType": "address",
          "name": "newOwner",
          "type": "address"
        }
      ],
      "name": "OwnershipTransferred",
      "type": "event"
    },
    {
      "inputs": [],
      "name": "_maxTokenWad",
      "outputs": [
        {
          "internalType": "uint256",
          "name": "",
          "type": "uint256"
        }
      ],
      "stateMutability": "view",
      "type": "function"
    },
    {
      "inputs": [],
      "name": "_maxXEthWad",
      "outputs": [
        {
          "internalType": "uint256",
          "name": "",
          "type": "uint256"
        }
      ],
      "stateMutability": "view",
      "type": "function"
    },
    {
      "inputs": [],
      "name": "_sweepReceiver",
      "outputs": [
        {
          "internalType": "address",
          "name": "",
          "type": "address"
        }
      ],
      "stateMutability": "view",
      "type": "function"
    },
    {
      "inputs": [
        {
          "internalType": "uint256",
          "name": "",
          "type": "uint256"
        }
      ],
      "name": "allRegisteredPairs",
      "outputs": [
        {
          "internalType": "address",
          "name": "",
          "type": "address"
        }
      ],
      "stateMutability": "view",
      "type": "function"
    },
    {
      "inputs": [
        {
          "internalType": "contract IXEth",
          "name": "xeth_",
          "type": "address"
        },
        {
          "internalType": "address",
          "name": "sweepReceiver_",
          "type": "address"
        },
        {
          "internalType": "uint256",
          "name": "maxXEthWad_",
          "type": "uint256"
        },
        {
          "internalType": "uint256",
          "name": "maxTokenWad_",
          "type": "uint256"
        },
        {
          "internalType": "contract IUniswapV2Router02",
          "name": "uniswapRouter_",
          "type": "address"
        },
        {
          "internalType": "address",
          "name": "uniswapFactory_",
          "type": "address"
        }
      ],
      "name": "initialize",
      "outputs": [],
      "stateMutability": "nonpayable",
      "type": "function"
    },
    {
      "inputs": [
        {
          "internalType": "string",
          "name": "name",
          "type": "string"
        },
        {
          "internalType": "string",
          "name": "symbol",
          "type": "string"
        },
        {
          "internalType": "uint256",
          "name": "wadToken",
          "type": "uint256"
        },
        {
          "internalType": "uint256",
          "name": "wadXeth",
          "type": "uint256"
        }
      ],
      "name": "launchERC20",
      "outputs": [
        {
          "internalType": "address",
          "name": "token_",
          "type": "address"
        },
        {
          "internalType": "address",
          "name": "pair_",
          "type": "address"
        }
      ],
      "stateMutability": "nonpayable",
      "type": "function"
    },
    {
      "inputs": [
        {
          "internalType": "string",
          "name": "name",
          "type": "string"
        },
        {
          "internalType": "string",
          "name": "symbol",
          "type": "string"
        },
        {
          "internalType": "uint256",
          "name": "wadToken",
          "type": "uint256"
        },
        {
          "internalType": "uint256",
          "name": "wadXeth",
          "type": "uint256"
        },
        {
          "internalType": "uint256",
          "name": "taxBips",
          "type": "uint256"
        },
        {
          "internalType": "address",
          "name": "taxMan",
          "type": "address"
        }
      ],
      "name": "launchERC20TransferTax",
      "outputs": [
        {
          "internalType": "address",
          "name": "token_",
          "type": "address"
        },
        {
          "internalType": "address",
          "name": "pair_",
          "type": "address"
        }
      ],
      "stateMutability": "nonpayable",
      "type": "function"
    },
    {
      "inputs": [],
      "name": "owner",
      "outputs": [
        {
          "internalType": "address",
          "name": "",
          "type": "address"
        }
      ],
      "stateMutability": "view",
      "type": "function"
    },
    {
      "inputs": [
        {
          "internalType": "address",
          "name": "",
          "type": "address"
        }
      ],
      "name": "pairRegistered",
      "outputs": [
        {
          "internalType": "bool",
          "name": "",
          "type": "bool"
        }
      ],
      "stateMutability": "view",
      "type": "function"
    },
    {
      "inputs": [
        {
          "internalType": "address",
          "name": "",
          "type": "address"
        }
      ],
      "name": "pairSwept",
      "outputs": [
        {
          "internalType": "uint256",
          "name": "",
          "type": "uint256"
        }
      ],
      "stateMutability": "view",
      "type": "function"
    },
    {
      "inputs": [],
      "name": "renounceOwnership",
      "outputs": [],
      "stateMutability": "nonpayable",
      "type": "function"
    },
    {
      "inputs": [
        {
          "internalType": "uint256",
          "name": "maxTokenWad_",
          "type": "uint256"
        }
      ],
      "name": "setMaxTokenWad",
      "outputs": [],
      "stateMutability": "nonpayable",
      "type": "function"
    },
    {
      "inputs": [
        {
          "internalType": "uint256",
          "name": "maxXEthWad_",
          "type": "uint256"
        }
      ],
      "name": "setMaxXEthWad",
      "outputs": [],
      "stateMutability": "nonpayable",
      "type": "function"
    },
    {
      "inputs": [
        {
          "internalType": "address",
          "name": "sweepReceiver_",
          "type": "address"
        }
      ],
      "name": "setSweepReceiver",
      "outputs": [],
      "stateMutability": "nonpayable",
      "type": "function"
    },
    {
      "inputs": [
        {
          "internalType": "address",
          "name": "uniswapFactory_",
          "type": "address"
        }
      ],
      "name": "setUniswapFactory",
      "outputs": [],
      "stateMutability": "nonpayable",
      "type": "function"
    },
    {
      "inputs": [
        {
          "internalType": "contract IUniswapV2Router02",
          "name": "uniswapRouter_",
          "type": "address"
        }
      ],
      "name": "setUniswapRouter",
      "outputs": [],
      "stateMutability": "nonpayable",
      "type": "function"
    },
    {
      "inputs": [
        {
          "internalType": "contract IUniswapV2Pair[]",
          "name": "pairs",
          "type": "address[]"
        }
      ],
      "name": "sweep",
      "outputs": [],
      "stateMutability": "nonpayable",
      "type": "function"
    },
    {
      "inputs": [
        {
          "internalType": "contract IUniswapV2Pair",
          "name": "pair",
          "type": "address"
        }
      ],
      "name": "sweepAmountAvailable",
      "outputs": [
        {
          "internalType": "uint256",
          "name": "amountAvailable",
          "type": "uint256"
        }
      ],
      "stateMutability": "view",
      "type": "function"
    },
    {
      "inputs": [],
      "name": "totalRegisteredPairs",
      "outputs": [
        {
          "internalType": "uint256",
          "name": "",
          "type": "uint256"
        }
      ],
      "stateMutability": "view",
      "type": "function"
    },
    {
      "inputs": [
        {
          "internalType": "address",
          "name": "newOwner",
          "type": "address"
        }
      ],
      "name": "transferOwnership",
      "outputs": [],
      "stateMutability": "nonpayable",
      "type": "function"
    }
  ],
  "bytecode": "0x608060405234801561001057600080fd5b50613ff7806100206000396000f3fe60806040523480156200001157600080fd5b5060043610620001485760003560e01c8063760fadce11620000bd578063bea9849e116200007b578063bea9849e14620004f1578063d1fb05e8146200051a578063d2d101621462000543578063e04b677f1462000590578063f2fde38b14620005b95762000148565b8063760fadce146200040c578063780469bb14620004495780638da5cb5b14620004bd578063a0c3eb0e14620004c7578063be7587c314620004e75762000148565b806342056990116200010b5780634205699014620001e4578063478dc96214620002045780634c29ada3146200030c578063715018a61462000335578063745f8737146200033f5762000148565b80630388e4a6146200014d5780630476f4da146200016f5780632019bbd2146200018b5780632f552c4114620001b15780633aeab1a114620001da575b600080fd5b6200016d600480360360208110156200016557600080fd5b5035620005e2565b005b6200017962000643565b60408051918252519081900360200190f35b6200019562000649565b604080516001600160a01b039092168252519081900360200190f35b6200016d60048036036020811015620001c957600080fd5b50356001600160a01b031662000658565b62000179620006d6565b6200019560048036036020811015620001fc57600080fd5b5035620006dc565b620002e6600480360360c08110156200021c57600080fd5b810190602081018135600160201b8111156200023757600080fd5b8201836020820111156200024a57600080fd5b803590602001918460018302840111600160201b831117156200026c57600080fd5b919390929091602081019035600160201b8111156200028a57600080fd5b8201836020820111156200029d57600080fd5b803590602001918460018302840111600160201b83111715620002bf57600080fd5b9193509150803590602081013590604081013590606001356001600160a01b031662000704565b604080516001600160a01b03938416815291909216602082015281519081900390910190f35b62000179600480360360208110156200032457600080fd5b50356001600160a01b031662000910565b6200016d62000edb565b620002e6600480360360808110156200035757600080fd5b810190602081018135600160201b8111156200037257600080fd5b8201836020820111156200038557600080fd5b803590602001918460018302840111600160201b83111715620003a757600080fd5b919390929091602081019035600160201b811115620003c557600080fd5b820183602082011115620003d857600080fd5b803590602001918460018302840111600160201b83111715620003fa57600080fd5b91935091508035906020013562000f81565b62000435600480360360208110156200042457600080fd5b50356001600160a01b031662001049565b604080519115158252519081900360200190f35b6200016d600480360360208110156200046157600080fd5b810190602081018135600160201b8111156200047c57600080fd5b8201836020820111156200048f57600080fd5b803590602001918460208302840111600160201b83111715620004b157600080fd5b5090925090506200105e565b6200019562001187565b6200016d60048036036020811015620004df57600080fd5b503562001196565b62000179620011f7565b6200016d600480360360208110156200050957600080fd5b50356001600160a01b0316620011fd565b62000179600480360360208110156200053257600080fd5b50356001600160a01b03166200127b565b6200016d600480360360c08110156200055b57600080fd5b506001600160a01b0381358116916020810135821691604082013591606081013591608082013581169160a00135166200128d565b6200016d60048036036020811015620005a857600080fd5b50356001600160a01b03166200139b565b6200016d60048036036020811015620005d157600080fd5b50356001600160a01b031662001419565b620005ec62001518565b6065546001600160a01b039081169116146200063e576040805162461bcd60e51b8152602060048201819052602482015260008051602062003f49833981519152604482015290519081900360640190fd5b609c55565b60a05481565b609a546001600160a01b031681565b6200066262001518565b6065546001600160a01b03908116911614620006b4576040805162461bcd60e51b8152602060048201819052602482015260008051602062003f49833981519152604482015290519081900360640190fd5b609a80546001600160a01b0319166001600160a01b0392909216919091179055565b609c5481565b609f8181548110620006ea57fe5b6000918252602090912001546001600160a01b0316905081565b6000806200071386866200151c565b6103e88411156200075a576040805162461bcd60e51b815260206004820152600c60248201526b0746178426970733e313030360a41b604482015290519081900360640190fd5b60008a8a8a8a8a308a604051620007719062002021565b604081018490526001600160a01b03831660608201526080810182905260a08082528101879052806020810160c082018a8a80828437600083820152601f01601f1916909101848103835288815260200190508888808284376000838201819052604051601f909201601f19169093018190039c509a509098505050505050505050f08015801562000807573d6000803e3d6000fd5b506040805163684297bf60e11b815230600482015260006024820181905291519293506001600160a01b0384169263d0852f7e9260448084019391929182900301818387803b1580156200085a57600080fd5b505af11580156200086f573d6000803e3d6000fd5b50505050806001600160a01b031663caa24df6856040518263ffffffff1660e01b815260040180826001600160a01b03166001600160a01b03168152602001915050600060405180830381600087803b158015620008cc57600080fd5b505af1158015620008e1573d6000803e3d6000fd5b50505050809250620008f5878785620015be565b9150620009028262001776565b509850989650505050505050565b6001600160a01b0381166000908152609e602052604081205460ff1662000976576040805162461bcd60e51b81526020600482015260156024820152742170616972526567697374657265645b706169725d60581b604482015290519081900360640190fd5b60008090506000609860009054906101000a90046001600160a01b03166001600160a01b0316846001600160a01b0316630dfe16816040518163ffffffff1660e01b815260040160206040518083038186803b158015620009d657600080fd5b505afa158015620009eb573d6000803e3d6000fd5b505050506040513d602081101562000a0257600080fd5b50516001600160a01b0316141562000a885760019150836001600160a01b031663d21220a76040518163ffffffff1660e01b815260040160206040518083038186803b15801562000a5257600080fd5b505afa15801562000a67573d6000803e3d6000fd5b505050506040513d602081101562000a7e57600080fd5b5051905062000bc5565b6098546040805163d21220a760e01b815290516001600160a01b039283169287169163d21220a7916004808301926020929190829003018186803b15801562000ad057600080fd5b505afa15801562000ae5573d6000803e3d6000fd5b505050506040513d602081101562000afc57600080fd5b50516001600160a01b03161462000b5a576040805162461bcd60e51b815260206004820152601c60248201527f21706169722e746f6b656e583d3d61646472657373285f786574682900000000604482015290519081900360640190fd5b836001600160a01b0316630dfe16816040518163ffffffff1660e01b815260040160206040518083038186803b15801562000b9457600080fd5b505afa15801562000ba9573d6000803e3d6000fd5b505050506040513d602081101562000bc057600080fd5b505190505b6000806000866001600160a01b0316630902f1ac6040518163ffffffff1660e01b815260040160606040518083038186803b15801562000c0457600080fd5b505afa15801562000c19573d6000803e3d6000fd5b505050506040513d606081101562000c3057600080fd5b50805160208083015160409384015184516370a0823160e01b8152600060048201819052955194985091965094506001600160a01b038b16926370a0823192602480840193919291829003018186803b15801562000c8d57600080fd5b505afa15801562000ca2573d6000803e3d6000fd5b505050506040513d602081101562000cb957600080fd5b5051604080516318160ddd60e01b815290519192506000916001600160a01b038b16916318160ddd916004808301926020929190829003018186803b15801562000d0257600080fd5b505afa15801562000d17573d6000803e3d6000fd5b505050506040513d602081101562000d2e57600080fd5b5051905060008162000d5f848a62000d47578762000d49565b885b6001600160701b03169063ffffffff620017f716565b8162000d6757fe5b04905060008262000d7f858b62000d47578962000d49565b8162000d8757fe5b0490506000886001600160a01b03166318160ddd6040518163ffffffff1660e01b815260040160206040518083038186803b15801562000dc657600080fd5b505afa15801562000ddb573d6000803e3d6000fd5b505050506040513d602081101562000df257600080fd5b505182141562000e0457508162000e9f565b62000e9c62000e8e62000e86848c6001600160a01b03166318160ddd6040518163ffffffff1660e01b815260040160206040518083038186803b15801562000e4b57600080fd5b505afa15801562000e60573d6000803e3d6000fd5b505050506040513d602081101562000e7757600080fd5b50519063ffffffff6200186316565b8486620018b4565b849063ffffffff6200186316565b90505b6001600160a01b038c166000908152609d602052604090205462000ecb90829063ffffffff6200186316565b9c9b505050505050505050505050565b62000ee562001518565b6065546001600160a01b0390811691161462000f37576040805162461bcd60e51b8152602060048201819052602482015260008051602062003f49833981519152604482015290519081900360640190fd5b6065546040516000916001600160a01b0316907f8be0079c531659141344cd1fd0a4f28419497f9722a3daafe3b4186f6b6457e0908390a3606580546001600160a01b0319169055565b60008062000f9084846200151c565b878787878760405162000fa3906200202f565b6040810182905260608082528101859052806020810160808201888880828437600083820152601f01601f1916909101848103835286815260200190508686808284376000838201819052604051601f909201601f19169093018190039a509850909650505050505050f08015801562001021573d6000803e3d6000fd5b50915062001031848484620015be565b90506200103e8162001776565b965096945050505050565b609e6020526000908152604090205460ff1681565b6101008110620010a9576040805162461bcd60e51b81526020600482015260116024820152703830b4b939973632b733ba341f1e991a9b60791b604482015290519081900360640190fd5b60005b60ff81168211156200118257600083838360ff16818110620010ca57fe5b905060200201356001600160a01b031690506000620010e98262000910565b9050801562001177576001600160a01b038083166000908152609d6020526040808220805485019055609854609a54825163979eb13760e01b8152600481018790529085166024820152915193169263979eb1379260448084019391929182900301818387803b1580156200115d57600080fd5b505af115801562001172573d6000803e3d6000fd5b505050505b5050600101620010ac565b505050565b6065546001600160a01b031690565b620011a062001518565b6065546001600160a01b03908116911614620011f2576040805162461bcd60e51b8152602060048201819052602482015260008051602062003f49833981519152604482015290519081900360640190fd5b609b55565b609b5481565b6200120762001518565b6065546001600160a01b0390811691161462001259576040805162461bcd60e51b8152602060048201819052602482015260008051602062003f49833981519152604482015290519081900360640190fd5b609780546001600160a01b0319166001600160a01b0392909216919091179055565b609d6020526000908152604090205481565b600054610100900460ff1680620012a95750620012a9620019b2565b80620012b8575060005460ff16155b620012f55760405162461bcd60e51b815260040180806020018281038252602e81526020018062003f69602e913960400191505060405180910390fd5b600054610100900460ff1615801562001321576000805460ff1961ff0019909116610100171660011790555b6200132b620019b8565b609780546001600160a01b038086166001600160a01b03199283161790925560998054858416908316179055609880548a8416908316179055609a805492891692909116919091179055609b859055609c849055801562001392576000805461ff00191690555b50505050505050565b620013a562001518565b6065546001600160a01b03908116911614620013f7576040805162461bcd60e51b8152602060048201819052602482015260008051602062003f49833981519152604482015290519081900360640190fd5b609980546001600160a01b0319166001600160a01b0392909216919091179055565b6200142362001518565b6065546001600160a01b0390811691161462001475576040805162461bcd60e51b8152602060048201819052602482015260008051602062003f49833981519152604482015290519081900360640190fd5b6001600160a01b038116620014bc5760405162461bcd60e51b815260040180806020018281038252602681526020018062003efb6026913960400191505060405180910390fd5b6065546040516001600160a01b038084169216907f8be0079c531659141344cd1fd0a4f28419497f9722a3daafe3b4186f6b6457e090600090a3606580546001600160a01b0319166001600160a01b0392909216919091179055565b3390565b609c548211156200156c576040805162461bcd60e51b81526020600482015260156024820152741dd859151bdad95b8f97db585e151bdad95b95d859605a1b604482015290519081900360640190fd5b609b54811115620015ba576040805162461bcd60e51b81526020600482015260136024820152721dd85916195d1a0f97db585e16115d1a15d859606a1b604482015290519081900360640190fd5b5050565b6098546040805163979eb13760e01b81526004810185905230602482015290516000926001600160a01b03169163979eb137916044808301928692919082900301818387803b1580156200161157600080fd5b505af115801562001626573d6000803e3d6000fd5b50506097546040805163095ea7b360e01b81526001600160a01b039283166004820152602481018990529051918616935063095ea7b392506044808201926020929091908290030181600087803b1580156200168157600080fd5b505af115801562001696573d6000803e3d6000fd5b505050506040513d6020811015620016ad57600080fd5b50506098546097546040805163095ea7b360e01b81526001600160a01b039283166004820152602481018790529051919092169163095ea7b39160448083019260209291908290030181600087803b1580156200170957600080fd5b505af11580156200171e573d6000803e3d6000fd5b505050506040513d60208110156200173557600080fd5b5050609854620017529083906001600160a01b0316868662001a76565b6001600160a01b0381166000908152609d6020526040902084905590509392505050565b6001600160a01b0381166000818152609e60205260408120805460ff19166001908117909155609f8054808301825592527f0bc14066c33013fe88f66e314e4cf150b0b2d4d6451a1a51dbbd1c27cd11de2890910180546001600160a01b03191690921790915560a054620017f19163ffffffff62001e2616565b60a05550565b600081158062001814575050808202828282816200181157fe5b04145b6200185d576040805162461bcd60e51b815260206004820152601460248201527364732d6d6174682d6d756c2d6f766572666c6f7760601b604482015290519081900360640190fd5b92915050565b808203828111156200185d576040805162461bcd60e51b815260206004820152601560248201527464732d6d6174682d7375622d756e646572666c6f7760581b604482015290519081900360640190fd5b6000808411620018f65760405162461bcd60e51b815260040180806020018281038252602b81526020018062003f97602b913960400191505060405180910390fd5b600083118015620019075750600082115b620019445760405162461bcd60e51b815260040180806020018281038252602881526020018062003f216028913960400191505060405180910390fd5b60006200195a856103e563ffffffff620017f716565b9050600062001970828563ffffffff620017f716565b905060006200199a836200198d886103e863ffffffff620017f716565b9063ffffffff62001e2616565b9050808281620019a657fe5b04979650505050505050565b303b1590565b600054610100900460ff1680620019d45750620019d4620019b2565b80620019e3575060005460ff16155b62001a205760405162461bcd60e51b815260040180806020018281038252602e81526020018062003f69602e913960400191505060405180910390fd5b600054610100900460ff1615801562001a4c576000805460ff1961ff0019909116610100171660011790555b62001a5662001e76565b62001a6062001f1e565b801562001a73576000805461ff00191690555b50565b609954604080516364e329cb60e11b81526001600160a01b03868116600483015287811660248301529151600093929092169163c9c653969160448082019260209290919082900301818787803b15801562001ad157600080fd5b505af115801562001ae6573d6000803e3d6000fd5b505050506040513d602081101562001afd57600080fd5b505160408051630240bc6b60e21b8152905191925060009182916001600160a01b03851691630902f1ac91600480820192606092909190829003018186803b15801562001b4957600080fd5b505afa15801562001b5e573d6000803e3d6000fd5b505050506040513d606081101562001b7557600080fd5b5080516020909101516001600160701b0391821693501690508115801562001b9b575080155b62001bed576040805162461bcd60e51b815260206004820152601960248201527f5061697220616c72656164792068617320726573657276657300000000000000604482015290519081900360640190fd5b866001600160a01b031663a9059cbb84876040518363ffffffff1660e01b815260040180836001600160a01b03166001600160a01b0316815260200182815260200192505050602060405180830381600087803b15801562001c4e57600080fd5b505af115801562001c63573d6000803e3d6000fd5b505050506040513d602081101562001c7a57600080fd5b505162001cc0576040805162461bcd60e51b815260206004820152600f60248201526e151c985b9cd9995c8811985a5b1959608a1b604482015290519081900360640190fd5b856001600160a01b031663a9059cbb84866040518363ffffffff1660e01b815260040180836001600160a01b03166001600160a01b0316815260200182815260200192505050602060405180830381600087803b15801562001d2157600080fd5b505af115801562001d36573d6000803e3d6000fd5b505050506040513d602081101562001d4d57600080fd5b505162001d93576040805162461bcd60e51b815260206004820152600f60248201526e151c985b9cd9995c8811985a5b1959608a1b604482015290519081900360640190fd5b826001600160a01b0316636a62784260006040518263ffffffff1660e01b815260040180826001600160a01b03166001600160a01b03168152602001915050602060405180830381600087803b15801562001ded57600080fd5b505af115801562001e02573d6000803e3d6000fd5b505050506040513d602081101562001e1957600080fd5b5092979650505050505050565b808201828110156200185d576040805162461bcd60e51b815260206004820152601460248201527364732d6d6174682d6164642d6f766572666c6f7760601b604482015290519081900360640190fd5b600054610100900460ff168062001e92575062001e92620019b2565b8062001ea1575060005460ff16155b62001ede5760405162461bcd60e51b815260040180806020018281038252602e81526020018062003f69602e913960400191505060405180910390fd5b600054610100900460ff1615801562001a60576000805460ff1961ff001990911661010017166001179055801562001a73576000805461ff001916905550565b600054610100900460ff168062001f3a575062001f3a620019b2565b8062001f49575060005460ff16155b62001f865760405162461bcd60e51b815260040180806020018281038252602e81526020018062003f69602e913960400191505060405180910390fd5b600054610100900460ff1615801562001fb2576000805460ff1961ff0019909116610100171660011790555b600062001fbe62001518565b606580546001600160a01b0319166001600160a01b038316908117909155604051919250906000907f8be0079c531659141344cd1fd0a4f28419497f9722a3daafe3b4186f6b6457e0908290a350801562001a73576000805461ff001916905550565b611198806200203e83390190565b610d2580620031d68339019056fe60806040523480156200001157600080fd5b506040516200119838038062001198833981810160405260a08110156200003757600080fd5b81019080805160405193929190846401000000008211156200005857600080fd5b9083019060208201858111156200006e57600080fd5b82516401000000008111828201881017156200008957600080fd5b82525081516020918201929091019080838360005b83811015620000b85781810151838201526020016200009e565b50505050905090810190601f168015620000e65780820380516001836020036101000a031916815260200191505b50604052602001805160405193929190846401000000008211156200010a57600080fd5b9083019060208201858111156200012057600080fd5b82516401000000008111828201881017156200013b57600080fd5b82525081516020918201929091019080838360005b838110156200016a57818101518382015260200162000150565b50505050905090810190601f168015620001985780820380516001836020036101000a031916815260200191505b506040908152602082810151918301516060909301518751929550929350620001c791600391880190620003aa565b508351620001dd906004906020870190620003aa565b506005805460ff191660121790556200020033846001600160e01b036200022e16565b600780546001600160a01b0319166001600160a01b039390931692909217909155600655506200044f915050565b6001600160a01b0382166200028a576040805162461bcd60e51b815260206004820152601f60248201527f45524332303a206d696e7420746f20746865207a65726f206164647265737300604482015290519081900360640190fd5b620002a1600083836001600160e01b036200034616565b620002bd816002546200034b60201b62000bc31790919060201c565b6002556001600160a01b03821660009081526020818152604090912054620002f091839062000bc36200034b821b17901c565b6001600160a01b0383166000818152602081815260408083209490945583518581529351929391927fddf252ad1be2c89b69c2b068fc378daa952ba7f163c4a11628f55a4df523b3ef9281900390910190a35050565b505050565b80820182811015620003a4576040805162461bcd60e51b815260206004820152601460248201527f64732d6d6174682d6164642d6f766572666c6f77000000000000000000000000604482015290519081900360640190fd5b92915050565b828054600181600116156101000203166002900490600052602060002090601f016020900481019282601f10620003ed57805160ff19168380011785556200041d565b828001600101855582156200041d579182015b828111156200041d57825182559160200191906001019062000400565b506200042b9291506200042f565b5090565b6200044c91905b808211156200042b576000815560010162000436565b90565b610d39806200045f6000396000f3fe608060405234801561001057600080fd5b50600436106101005760003560e01c806395d89b4111610097578063b41e664011610066578063b41e664014610310578063caa24df614610334578063d0852f7e1461035c578063dd62ed3e1461038a57610100565b806395d89b41146102a8578063a457c2d7146102b0578063a7e94c02146102dc578063a9059cbb146102e457610100565b8063313ce567116100d3578063313ce5671461021257806339509351146102305780634692a9621461025c57806370a082311461028257610100565b806306fdde0314610105578063095ea7b31461018257806318160ddd146101c257806323b872dd146101dc575b600080fd5b61010d6103b8565b6040805160208082528351818301528351919283929083019185019080838360005b8381101561014757818101518382015260200161012f565b50505050905090810190601f1680156101745780820380516001836020036101000a031916815260200191505b509250505060405180910390f35b6101ae6004803603604081101561019857600080fd5b506001600160a01b03813516906020013561044e565b604080519115158252519081900360200190f35b6101ca61046c565b60408051918252519081900360200190f35b6101ae600480360360608110156101f257600080fd5b506001600160a01b03813581169160208101359091169060400135610472565b61021a6104e7565b6040805160ff9092168252519081900360200190f35b6101ae6004803603604081101561024657600080fd5b506001600160a01b0381351690602001356104f0565b6101ae6004803603602081101561027257600080fd5b50356001600160a01b0316610544565b6101ca6004803603602081101561029857600080fd5b50356001600160a01b0316610559565b61010d610574565b6101ae600480360360408110156102c657600080fd5b506001600160a01b0381351690602001356105d5565b6101ca610629565b6101ae600480360360408110156102fa57600080fd5b506001600160a01b03813516906020013561062f565b610318610643565b604080516001600160a01b039092168252519081900360200190f35b61035a6004803603602081101561034a57600080fd5b50356001600160a01b0316610652565b005b61035a6004803603604081101561037257600080fd5b506001600160a01b03813516906020013515156106bd565b6101ca600480360360408110156103a057600080fd5b506001600160a01b038135811691602001351661072f565b60038054604080516020601f60026000196101006001881615020190951694909404938401819004810282018101909252828152606093909290918301828280156104445780601f1061041957610100808354040283529160200191610444565b820191906000526020600020905b81548152906001019060200180831161042757829003601f168201915b5050505050905090565b600061046261045b61075a565b848461075e565b5060015b92915050565b60025490565b600061047f84848461084a565b6104dd8461048b61075a565b6001600160a01b03871660009081526001602052604081206104d8918791906104b261075a565b6001600160a01b031681526020810191909152604001600020549063ffffffff610b7316565b61075e565b5060019392505050565b60055460ff1690565b60006104626104fd61075a565b846104d8856001600061050e61075a565b6001600160a01b03908116825260208083019390935260409182016000908120918c16815292529020549063ffffffff610bc316565b60086020526000908152604090205460ff1681565b6001600160a01b031660009081526020819052604090205490565b60048054604080516020601f60026000196101006001881615020190951694909404938401819004810282018101909252828152606093909290918301828280156104445780601f1061041957610100808354040283529160200191610444565b60006104626105e261075a565b846104d885600160006105f361075a565b6001600160a01b03908116825260208083019390935260409182016000908120918c16815292529020549063ffffffff610b7316565b60065481565b600061046261063c61075a565b848461084a565b6007546001600160a01b031681565b6007546001600160a01b0316331461069b576040805162461bcd60e51b815260206004820152600760248201526610ba30bc26b0b760c91b604482015290519081900360640190fd5b600780546001600160a01b0319166001600160a01b0392909216919091179055565b6007546001600160a01b03163314610706576040805162461bcd60e51b815260206004820152600760248201526610ba30bc26b0b760c91b604482015290519081900360640190fd5b6001600160a01b039091166000908152600860205260409020805460ff19169115919091179055565b6001600160a01b03918216600090815260016020908152604080832093909416825291909152205490565b3390565b6001600160a01b0383166107a35760405162461bcd60e51b8152600401808060200182810382526024815260200180610ce06024913960400191505060405180910390fd5b6001600160a01b0382166107e85760405162461bcd60e51b8152600401808060200182810382526022815260200180610c996022913960400191505060405180910390fd5b6001600160a01b03808416600081815260016020908152604080832094871680845294825291829020859055815185815291517f8c5be1e5ebec7d5bd14f71427d1e84f3dd0314c0f7b2291e5b200ac8c7c3b9259281900390910190a3505050565b6001600160a01b03831661088f5760405162461bcd60e51b8152600401808060200182810382526025815260200180610cbb6025913960400191505060405180910390fd5b6001600160a01b0382166108d45760405162461bcd60e51b8152600401808060200182810382526023815260200180610c766023913960400191505060405180910390fd5b6001600160a01b03831660009081526008602052604090205460ff168061091357506001600160a01b03821660009081526008602052604090205460ff165b156109db57610923838383610b6e565b6001600160a01b03831660009081526020819052604090205461094c908263ffffffff610b7316565b6001600160a01b038085166000908152602081905260408082209390935590841681522054610981908263ffffffff610bc316565b6001600160a01b038084166000818152602081815260409182902094909455805185815290519193928716927fddf252ad1be2c89b69c2b068fc378daa952ba7f163c4a11628f55a4df523b3ef92918290030190a3610b6e565b60006127106109f560065484610c1290919063ffffffff16565b816109fc57fe5b0490506000610a11838363ffffffff610b7316565b9050610a1e858583610b6e565b600754610a369086906001600160a01b031684610b6e565b6001600160a01b038516600090815260208190526040902054610a5f908463ffffffff610b7316565b6001600160a01b038087166000908152602081905260408082209390935590861681522054610a94908263ffffffff610bc316565b6001600160a01b038086166000908152602081905260408082209390935560075490911681522054610acc908363ffffffff610bc316565b6007546001600160a01b0390811660009081526020818152604091829020939093558051848152905187831693928916927fddf252ad1be2c89b69c2b068fc378daa952ba7f163c4a11628f55a4df523b3ef928290030190a36007546040805184815290516001600160a01b03928316928816917fddf252ad1be2c89b69c2b068fc378daa952ba7f163c4a11628f55a4df523b3ef919081900360200190a350505b505050565b80820382811115610466576040805162461bcd60e51b815260206004820152601560248201527464732d6d6174682d7375622d756e646572666c6f7760581b604482015290519081900360640190fd5b80820182811015610466576040805162461bcd60e51b815260206004820152601460248201527364732d6d6174682d6164642d6f766572666c6f7760601b604482015290519081900360640190fd5b6000811580610c2d57505080820282828281610c2a57fe5b04145b610466576040805162461bcd60e51b815260206004820152601460248201527364732d6d6174682d6d756c2d6f766572666c6f7760601b604482015290519081900360640190fdfe45524332303a207472616e7366657220746f20746865207a65726f206164647265737345524332303a20617070726f766520746f20746865207a65726f206164647265737345524332303a207472616e736665722066726f6d20746865207a65726f206164647265737345524332303a20617070726f76652066726f6d20746865207a65726f2061646472657373a2646970667358221220f0c82fbf8cd047018c475f5d6cbda20681c68f6c01f49191bcf06cb907a9989064736f6c6343000606003360806040523480156200001157600080fd5b5060405162000d2538038062000d25833981810160405260608110156200003757600080fd5b81019080805160405193929190846401000000008211156200005857600080fd5b9083019060208201858111156200006e57600080fd5b82516401000000008111828201881017156200008957600080fd5b82525081516020918201929091019080838360005b83811015620000b85781810151838201526020016200009e565b50505050905090810190601f168015620000e65780820380516001836020036101000a031916815260200191505b50604052602001805160405193929190846401000000008211156200010a57600080fd5b9083019060208201858111156200012057600080fd5b82516401000000008111828201881017156200013b57600080fd5b82525081516020918201929091019080838360005b838110156200016a57818101518382015260200162000150565b50505050905090810190601f168015620001985780820380516001836020036101000a031916815260200191505b506040526020908101518551909350620001b9925060039186019062000377565b508151620001cf90600490602085019062000377565b506005805460ff19166012179055620001f233826001600160e01b03620001fb16565b5050506200041c565b6001600160a01b03821662000257576040805162461bcd60e51b815260206004820152601f60248201527f45524332303a206d696e7420746f20746865207a65726f206164647265737300604482015290519081900360640190fd5b6200026e600083836001600160e01b036200031316565b6200028a816002546200031860201b620007e11790919060201c565b6002556001600160a01b03821660009081526020818152604090912054620002bd918390620007e162000318821b17901c565b6001600160a01b0383166000818152602081815260408083209490945583518581529351929391927fddf252ad1be2c89b69c2b068fc378daa952ba7f163c4a11628f55a4df523b3ef9281900390910190a35050565b505050565b8082018281101562000371576040805162461bcd60e51b815260206004820152601460248201527f64732d6d6174682d6164642d6f766572666c6f77000000000000000000000000604482015290519081900360640190fd5b92915050565b828054600181600116156101000203166002900490600052602060002090601f016020900481019282601f10620003ba57805160ff1916838001178555620003ea565b82800160010185558215620003ea579182015b82811115620003ea578251825591602001919060010190620003cd565b50620003f8929150620003fc565b5090565b6200041991905b80821115620003f8576000815560010162000403565b90565b6108f9806200042c6000396000f3fe608060405234801561001057600080fd5b50600436106100a95760003560e01c8063395093511161007157806339509351146101d957806370a082311461020557806395d89b411461022b578063a457c2d714610233578063a9059cbb1461025f578063dd62ed3e1461028b576100a9565b806306fdde03146100ae578063095ea7b31461012b57806318160ddd1461016b57806323b872dd14610185578063313ce567146101bb575b600080fd5b6100b66102b9565b6040805160208082528351818301528351919283929083019185019080838360005b838110156100f05781810151838201526020016100d8565b50505050905090810190601f16801561011d5780820380516001836020036101000a031916815260200191505b509250505060405180910390f35b6101576004803603604081101561014157600080fd5b506001600160a01b03813516906020013561034f565b604080519115158252519081900360200190f35b61017361036d565b60408051918252519081900360200190f35b6101576004803603606081101561019b57600080fd5b506001600160a01b03813581169160208101359091169060400135610373565b6101c36103e8565b6040805160ff9092168252519081900360200190f35b610157600480360360408110156101ef57600080fd5b506001600160a01b0381351690602001356103f1565b6101736004803603602081101561021b57600080fd5b50356001600160a01b0316610445565b6100b6610460565b6101576004803603604081101561024957600080fd5b506001600160a01b0381351690602001356104c1565b6101576004803603604081101561027557600080fd5b506001600160a01b038135169060200135610515565b610173600480360360408110156102a157600080fd5b506001600160a01b0381358116916020013516610529565b60038054604080516020601f60026000196101006001881615020190951694909404938401819004810282018101909252828152606093909290918301828280156103455780601f1061031a57610100808354040283529160200191610345565b820191906000526020600020905b81548152906001019060200180831161032857829003601f168201915b5050505050905090565b600061036361035c610554565b8484610558565b5060015b92915050565b60025490565b6000610380848484610644565b6103de8461038c610554565b6001600160a01b03871660009081526001602052604081206103d9918791906103b3610554565b6001600160a01b031681526020810191909152604001600020549063ffffffff61079116565b610558565b5060019392505050565b60055460ff1690565b60006103636103fe610554565b846103d9856001600061040f610554565b6001600160a01b03908116825260208083019390935260409182016000908120918c16815292529020549063ffffffff6107e116565b6001600160a01b031660009081526020819052604090205490565b60048054604080516020601f60026000196101006001881615020190951694909404938401819004810282018101909252828152606093909290918301828280156103455780601f1061031a57610100808354040283529160200191610345565b60006103636104ce610554565b846103d985600160006104df610554565b6001600160a01b03908116825260208083019390935260409182016000908120918c16815292529020549063ffffffff61079116565b6000610363610522610554565b8484610644565b6001600160a01b03918216600090815260016020908152604080832093909416825291909152205490565b3390565b6001600160a01b03831661059d5760405162461bcd60e51b81526004018080602001828103825260248152602001806108a06024913960400191505060405180910390fd5b6001600160a01b0382166105e25760405162461bcd60e51b81526004018080602001828103825260228152602001806108596022913960400191505060405180910390fd5b6001600160a01b03808416600081815260016020908152604080832094871680845294825291829020859055815185815291517f8c5be1e5ebec7d5bd14f71427d1e84f3dd0314c0f7b2291e5b200ac8c7c3b9259281900390910190a3505050565b6001600160a01b0383166106895760405162461bcd60e51b815260040180806020018281038252602581526020018061087b6025913960400191505060405180910390fd5b6001600160a01b0382166106ce5760405162461bcd60e51b81526004018080602001828103825260238152602001806108366023913960400191505060405180910390fd5b6106d9838383610830565b6001600160a01b038316600090815260208190526040902054610702908263ffffffff61079116565b6001600160a01b038085166000908152602081905260408082209390935590841681522054610737908263ffffffff6107e116565b6001600160a01b038084166000818152602081815260409182902094909455805185815290519193928716927fddf252ad1be2c89b69c2b068fc378daa952ba7f163c4a11628f55a4df523b3ef92918290030190a3505050565b80820382811115610367576040805162461bcd60e51b815260206004820152601560248201527464732d6d6174682d7375622d756e646572666c6f7760581b604482015290519081900360640190fd5b80820182811015610367576040805162461bcd60e51b815260206004820152601460248201527364732d6d6174682d6164642d6f766572666c6f7760601b604482015290519081900360640190fd5b50505056fe45524332303a207472616e7366657220746f20746865207a65726f206164647265737345524332303a20617070726f766520746f20746865207a65726f206164647265737345524332303a207472616e736665722066726f6d20746865207a65726f206164647265737345524332303a20617070726f76652066726f6d20746865207a65726f2061646472657373a2646970667358221220f178e13f888904c0da79b91ca4b560329c0b2845a906d044544bdaf2be682dab64736f6c634300060600334f776e61626c653a206e6577206f776e657220697320746865207a65726f2061646472657373556e697377617056324c6962726172793a20494e53554646494349454e545f4c49515549444954594f776e61626c653a2063616c6c6572206973206e6f7420746865206f776e6572436f6e747261637420696e7374616e63652068617320616c7265616479206265656e20696e697469616c697a6564556e697377617056324c6962726172793a20494e53554646494349454e545f494e5055545f414d4f554e54a2646970667358221220a8f6c01d08dde903423638f3bbdf2867802adf9112b2214c63d295d2e8a453f964736f6c63430006060033",
  "linkReferences": {},
  "deployedLinkReferences": {}
}