{
  "_format": "hh-sol-artifact-1",
  "contractName": "XLOCKER",
  "sourceName": "contracts/xlocker.sol",
  "abi": [
    {
      "anonymous": false,
      "inputs": [
        {
          "indexed": true,
          "internalType": "address",
          "name": "previousOwner",
          "type": "address"
        },
        {
          "indexed": true,
          "internalType": "address",
          "name": "newOwner",
          "type": "address"
        }
      ],
      "name": "OwnershipTransferred",
      "type": "event"
    },
    {
      "inputs": [],
      "name": "_maxTokenWad",
      "outputs": [
        {
          "internalType": "uint256",
          "name": "",
          "type": "uint256"
        }
      ],
      "stateMutability": "view",
      "type": "function"
    },
    {
      "inputs": [],
      "name": "_maxXEthWad",
      "outputs": [
        {
          "internalType": "uint256",
          "name": "",
          "type": "uint256"
        }
      ],
      "stateMutability": "view",
      "type": "function"
    },
    {
      "inputs": [],
      "name": "_sweepReceiver",
      "outputs": [
        {
          "internalType": "address",
          "name": "",
          "type": "address"
        }
      ],
      "stateMutability": "view",
      "type": "function"
    },
    {
      "inputs": [
        {
          "internalType": "uint256",
          "name": "",
          "type": "uint256"
        }
      ],
      "name": "allRegisteredPairs",
      "outputs": [
        {
          "internalType": "address",
          "name": "",
          "type": "address"
        }
      ],
      "stateMutability": "view",
      "type": "function"
    },
    {
      "inputs": [
        {
          "internalType": "contract IXEth",
          "name": "xeth_",
          "type": "address"
        },
        {
          "internalType": "address",
          "name": "sweepReceiver_",
          "type": "address"
        },
        {
          "internalType": "uint256",
          "name": "maxXEthWad_",
          "type": "uint256"
        },
        {
          "internalType": "uint256",
          "name": "maxTokenWad_",
          "type": "uint256"
        },
        {
          "internalType": "contract IUniswapV2Router02",
          "name": "uniswapRouter_",
          "type": "address"
        },
        {
          "internalType": "address",
          "name": "uniswapFactory_",
          "type": "address"
        }
      ],
      "name": "initialize",
      "outputs": [],
      "stateMutability": "nonpayable",
      "type": "function"
    },
    {
      "inputs": [
        {
          "internalType": "string",
          "name": "name",
          "type": "string"
        },
        {
          "internalType": "string",
          "name": "symbol",
          "type": "string"
        },
        {
          "internalType": "uint256",
          "name": "wadToken",
          "type": "uint256"
        },
        {
          "internalType": "uint256",
          "name": "wadXeth",
          "type": "uint256"
        }
      ],
      "name": "launchERC20",
      "outputs": [
        {
          "internalType": "address",
          "name": "token_",
          "type": "address"
        },
        {
          "internalType": "address",
          "name": "pair_",
          "type": "address"
        }
      ],
      "stateMutability": "nonpayable",
      "type": "function"
    },
    {
      "inputs": [
        {
          "internalType": "string",
          "name": "name",
          "type": "string"
        },
        {
          "internalType": "string",
          "name": "symbol",
          "type": "string"
        },
        {
          "internalType": "uint256",
          "name": "wadToken",
          "type": "uint256"
        },
        {
          "internalType": "uint256",
          "name": "wadXeth",
          "type": "uint256"
        },
        {
          "internalType": "uint256",
          "name": "taxBips",
          "type": "uint256"
        },
        {
          "internalType": "address",
          "name": "taxMan",
          "type": "address"
        }
      ],
      "name": "launchERC20TransferTax",
      "outputs": [
        {
          "internalType": "address",
          "name": "token_",
          "type": "address"
        },
        {
          "internalType": "address",
          "name": "pair_",
          "type": "address"
        }
      ],
      "stateMutability": "nonpayable",
      "type": "function"
    },
    {
      "inputs": [],
      "name": "owner",
      "outputs": [
        {
          "internalType": "address",
          "name": "",
          "type": "address"
        }
      ],
      "stateMutability": "view",
      "type": "function"
    },
    {
      "inputs": [
        {
          "internalType": "address",
          "name": "",
          "type": "address"
        }
      ],
      "name": "pairRegistered",
      "outputs": [
        {
          "internalType": "bool",
          "name": "",
          "type": "bool"
        }
      ],
      "stateMutability": "view",
      "type": "function"
    },
    {
      "inputs": [
        {
          "internalType": "address",
          "name": "",
          "type": "address"
        }
      ],
      "name": "pairSwept",
      "outputs": [
        {
          "internalType": "uint256",
          "name": "",
          "type": "uint256"
        }
      ],
      "stateMutability": "view",
      "type": "function"
    },
    {
      "inputs": [],
      "name": "renounceOwnership",
      "outputs": [],
      "stateMutability": "nonpayable",
      "type": "function"
    },
    {
      "inputs": [
        {
          "internalType": "uint256",
          "name": "maxTokenWad_",
          "type": "uint256"
        }
      ],
      "name": "setMaxTokenWad",
      "outputs": [],
      "stateMutability": "nonpayable",
      "type": "function"
    },
    {
      "inputs": [
        {
          "internalType": "uint256",
          "name": "maxXEthWad_",
          "type": "uint256"
        }
      ],
      "name": "setMaxXEthWad",
      "outputs": [],
      "stateMutability": "nonpayable",
      "type": "function"
    },
    {
      "inputs": [
        {
          "internalType": "address",
          "name": "sweepReceiver_",
          "type": "address"
        }
      ],
      "name": "setSweepReceiver",
      "outputs": [],
      "stateMutability": "nonpayable",
      "type": "function"
    },
    {
      "inputs": [
        {
          "internalType": "address",
          "name": "uniswapFactory_",
          "type": "address"
        }
      ],
      "name": "setUniswapFactory",
      "outputs": [],
      "stateMutability": "nonpayable",
      "type": "function"
    },
    {
      "inputs": [
        {
          "internalType": "contract IUniswapV2Router02",
          "name": "uniswapRouter_",
          "type": "address"
        }
      ],
      "name": "setUniswapRouter",
      "outputs": [],
      "stateMutability": "nonpayable",
      "type": "function"
    },
    {
      "inputs": [
        {
          "internalType": "contract IUniswapV2Pair[]",
          "name": "pairs",
          "type": "address[]"
        }
      ],
      "name": "sweep",
      "outputs": [],
      "stateMutability": "nonpayable",
      "type": "function"
    },
    {
      "inputs": [
        {
          "internalType": "contract IUniswapV2Pair",
          "name": "pair",
          "type": "address"
        }
      ],
      "name": "sweepAmountAvailable",
      "outputs": [
        {
          "internalType": "uint256",
          "name": "amountAvailable",
          "type": "uint256"
        }
      ],
      "stateMutability": "view",
      "type": "function"
    },
    {
      "inputs": [],
      "name": "totalRegisteredPairs",
      "outputs": [
        {
          "internalType": "uint256",
          "name": "",
          "type": "uint256"
        }
      ],
      "stateMutability": "view",
      "type": "function"
    },
    {
      "inputs": [
        {
          "internalType": "address",
          "name": "newOwner",
          "type": "address"
        }
      ],
      "name": "transferOwnership",
      "outputs": [],
      "stateMutability": "nonpayable",
      "type": "function"
    }
  ],
  "bytecode": "0x608060405234801561001057600080fd5b5061438c806100206000396000f3fe60806040523480156200001157600080fd5b5060043610620001485760003560e01c8063760fadce11620000bd578063bea9849e116200007b578063bea9849e14620004f1578063d1fb05e8146200051a578063d2d101621462000543578063e04b677f1462000590578063f2fde38b14620005b95762000148565b8063760fadce146200040c578063780469bb14620004495780638da5cb5b14620004bd578063a0c3eb0e14620004c7578063be7587c314620004e75762000148565b806342056990116200010b5780634205699014620001e4578063478dc96214620002045780634c29ada3146200030c578063715018a61462000335578063745f8737146200033f5762000148565b80630388e4a6146200014d5780630476f4da146200016f5780632019bbd2146200018b5780632f552c4114620001b15780633aeab1a114620001da575b600080fd5b6200016d600480360360208110156200016557600080fd5b5035620005e2565b005b6200017962000643565b60408051918252519081900360200190f35b6200019562000649565b604080516001600160a01b039092168252519081900360200190f35b6200016d60048036036020811015620001c957600080fd5b50356001600160a01b031662000658565b62000179620006d6565b6200019560048036036020811015620001fc57600080fd5b5035620006dc565b620002e6600480360360c08110156200021c57600080fd5b810190602081018135600160201b8111156200023757600080fd5b8201836020820111156200024a57600080fd5b803590602001918460018302840111600160201b831117156200026c57600080fd5b919390929091602081019035600160201b8111156200028a57600080fd5b8201836020820111156200029d57600080fd5b803590602001918460018302840111600160201b83111715620002bf57600080fd5b9193509150803590602081013590604081013590606001356001600160a01b031662000704565b604080516001600160a01b03938416815291909216602082015281519081900390910190f35b62000179600480360360208110156200032457600080fd5b50356001600160a01b031662000910565b6200016d62000ee5565b620002e6600480360360808110156200035757600080fd5b810190602081018135600160201b8111156200037257600080fd5b8201836020820111156200038557600080fd5b803590602001918460018302840111600160201b83111715620003a757600080fd5b919390929091602081019035600160201b811115620003c557600080fd5b820183602082011115620003d857600080fd5b803590602001918460018302840111600160201b83111715620003fa57600080fd5b91935091508035906020013562000f8b565b62000435600480360360208110156200042457600080fd5b50356001600160a01b031662001053565b604080519115158252519081900360200190f35b6200016d600480360360208110156200046157600080fd5b810190602081018135600160201b8111156200047c57600080fd5b8201836020820111156200048f57600080fd5b803590602001918460208302840111600160201b83111715620004b157600080fd5b50909250905062001068565b6200019562001191565b6200016d60048036036020811015620004df57600080fd5b5035620011a0565b6200017962001201565b6200016d600480360360208110156200050957600080fd5b50356001600160a01b031662001207565b62000179600480360360208110156200053257600080fd5b50356001600160a01b031662001285565b6200016d600480360360c08110156200055b57600080fd5b506001600160a01b0381358116916020810135821691604082013591606081013591608082013581169160a001351662001297565b6200016d60048036036020811015620005a857600080fd5b50356001600160a01b0316620013a5565b6200016d60048036036020811015620005d157600080fd5b50356001600160a01b031662001423565b620005ec62001522565b6065546001600160a01b039081169116146200063e576040805162461bcd60e51b81526020600482018190526024820152600080516020620042de833981519152604482015290519081900360640190fd5b609c55565b60a05481565b609a546001600160a01b031681565b6200066262001522565b6065546001600160a01b03908116911614620006b4576040805162461bcd60e51b81526020600482018190526024820152600080516020620042de833981519152604482015290519081900360640190fd5b609a80546001600160a01b0319166001600160a01b0392909216919091179055565b609c5481565b609f8181548110620006ea57fe5b6000918252602090912001546001600160a01b0316905081565b60008062000713868662001526565b6103e88411156200075a576040805162461bcd60e51b815260206004820152600c60248201526b0746178426970733e313030360a41b604482015290519081900360640190fd5b60008a8a8a8a8a308a60405162000771906200201a565b604081018490526001600160a01b03831660608201526080810182905260a08082528101879052806020810160c082018a8a80828437600083820152601f01601f1916909101848103835288815260200190508888808284376000838201819052604051601f909201601f19169093018190039c509a509098505050505050505050f08015801562000807573d6000803e3d6000fd5b506040805163684297bf60e11b815230600482015260006024820181905291519293506001600160a01b0384169263d0852f7e9260448084019391929182900301818387803b1580156200085a57600080fd5b505af11580156200086f573d6000803e3d6000fd5b50505050806001600160a01b031663caa24df6856040518263ffffffff1660e01b815260040180826001600160a01b03166001600160a01b03168152602001915050600060405180830381600087803b158015620008cc57600080fd5b505af1158015620008e1573d6000803e3d6000fd5b50505050809250620008f5878785620015c8565b9150620009028262001839565b509850989650505050505050565b6001600160a01b0381166000908152609e602052604081205460ff1662000976576040805162461bcd60e51b81526020600482015260156024820152742170616972526567697374657265645b706169725d60581b604482015290519081900360640190fd5b60008090506000609860009054906101000a90046001600160a01b03166001600160a01b0316846001600160a01b0316630dfe16816040518163ffffffff1660e01b815260040160206040518083038186803b158015620009d657600080fd5b505afa158015620009eb573d6000803e3d6000fd5b505050506040513d602081101562000a0257600080fd5b50516001600160a01b0316141562000a885760019150836001600160a01b031663d21220a76040518163ffffffff1660e01b815260040160206040518083038186803b15801562000a5257600080fd5b505afa15801562000a67573d6000803e3d6000fd5b505050506040513d602081101562000a7e57600080fd5b5051905062000bc5565b6098546040805163d21220a760e01b815290516001600160a01b039283169287169163d21220a7916004808301926020929190829003018186803b15801562000ad057600080fd5b505afa15801562000ae5573d6000803e3d6000fd5b505050506040513d602081101562000afc57600080fd5b50516001600160a01b03161462000b5a576040805162461bcd60e51b815260206004820152601c60248201527f21706169722e746f6b656e583d3d61646472657373285f786574682900000000604482015290519081900360640190fd5b836001600160a01b0316630dfe16816040518163ffffffff1660e01b815260040160206040518083038186803b15801562000b9457600080fd5b505afa15801562000ba9573d6000803e3d6000fd5b505050506040513d602081101562000bc057600080fd5b505190505b6000806000866001600160a01b0316630902f1ac6040518163ffffffff1660e01b815260040160606040518083038186803b15801562000c0457600080fd5b505afa15801562000c19573d6000803e3d6000fd5b505050506040513d606081101562000c3057600080fd5b50805160208083015160409384015184516370a0823160e01b8152600060048201819052955194985091965094506001600160a01b038b16926370a0823192602480840193919291829003018186803b15801562000c8d57600080fd5b505afa15801562000ca2573d6000803e3d6000fd5b505050506040513d602081101562000cb957600080fd5b5051604080516318160ddd60e01b815290519192506000916001600160a01b038b16916318160ddd916004808301926020929190829003018186803b15801562000d0257600080fd5b505afa15801562000d17573d6000803e3d6000fd5b505050506040513d602081101562000d2e57600080fd5b50519050600062000d778262000d6a858b62000d4b578862000d4d565b895b6dffffffffffffffffffffffffffff169063ffffffff620018ba16565b9063ffffffff6200192116565b9050600062000d928362000d6a868c62000d4b578a62000d4d565b90506000886001600160a01b03166318160ddd6040518163ffffffff1660e01b815260040160206040518083038186803b15801562000dd057600080fd5b505afa15801562000de5573d6000803e3d6000fd5b505050506040513d602081101562000dfc57600080fd5b505182141562000e0e57508162000ea9565b62000ea662000e9862000e90848c6001600160a01b03166318160ddd6040518163ffffffff1660e01b815260040160206040518083038186803b15801562000e5557600080fd5b505afa15801562000e6a573d6000803e3d6000fd5b505050506040513d602081101562000e8157600080fd5b50519063ffffffff6200196516565b8486620019a9565b849063ffffffff6200196516565b90505b6001600160a01b038c166000908152609d602052604090205462000ed590829063ffffffff6200196516565b9c9b505050505050505050505050565b62000eef62001522565b6065546001600160a01b0390811691161462000f41576040805162461bcd60e51b81526020600482018190526024820152600080516020620042de833981519152604482015290519081900360640190fd5b6065546040516000916001600160a01b0316907f8be0079c531659141344cd1fd0a4f28419497f9722a3daafe3b4186f6b6457e0908390a3606580546001600160a01b0319169055565b60008062000f9a848462001526565b878787878760405162000fad9062002028565b6040810182905260608082528101859052806020810160808201888880828437600083820152601f01601f1916909101848103835286815260200190508686808284376000838201819052604051601f909201601f19169093018190039a509850909650505050505050f0801580156200102b573d6000803e3d6000fd5b5091506200103b848484620015c8565b9050620010488162001839565b965096945050505050565b609e6020526000908152604090205460ff1681565b6101008110620010b3576040805162461bcd60e51b81526020600482015260116024820152703830b4b939973632b733ba341f1e991a9b60791b604482015290519081900360640190fd5b60005b60ff81168211156200118c57600083838360ff16818110620010d457fe5b905060200201356001600160a01b031690506000620010f38262000910565b9050801562001181576001600160a01b038083166000908152609d6020526040808220805485019055609854609a54825163979eb13760e01b8152600481018790529085166024820152915193169263979eb1379260448084019391929182900301818387803b1580156200116757600080fd5b505af11580156200117c573d6000803e3d6000fd5b505050505b5050600101620010b6565b505050565b6065546001600160a01b031690565b620011aa62001522565b6065546001600160a01b03908116911614620011fc576040805162461bcd60e51b81526020600482018190526024820152600080516020620042de833981519152604482015290519081900360640190fd5b609b55565b609b5481565b6200121162001522565b6065546001600160a01b0390811691161462001263576040805162461bcd60e51b81526020600482018190526024820152600080516020620042de833981519152604482015290519081900360640190fd5b609780546001600160a01b0319166001600160a01b0392909216919091179055565b609d6020526000908152604090205481565b600054610100900460ff1680620012b35750620012b362001aa7565b80620012c2575060005460ff16155b620012ff5760405162461bcd60e51b815260040180806020018281038252602e815260200180620042fe602e913960400191505060405180910390fd5b600054610100900460ff161580156200132b576000805460ff1961ff0019909116610100171660011790555b6200133562001aad565b609780546001600160a01b038086166001600160a01b03199283161790925560998054858416908316179055609880548a8416908316179055609a805492891692909116919091179055609b859055609c84905580156200139c576000805461ff00191690555b50505050505050565b620013af62001522565b6065546001600160a01b0390811691161462001401576040805162461bcd60e51b81526020600482018190526024820152600080516020620042de833981519152604482015290519081900360640190fd5b609980546001600160a01b0319166001600160a01b0392909216919091179055565b6200142d62001522565b6065546001600160a01b039081169116146200147f576040805162461bcd60e51b81526020600482018190526024820152600080516020620042de833981519152604482015290519081900360640190fd5b6001600160a01b038116620014c65760405162461bcd60e51b81526004018080602001828103825260268152602001806200424a6026913960400191505060405180910390fd5b6065546040516001600160a01b038084169216907f8be0079c531659141344cd1fd0a4f28419497f9722a3daafe3b4186f6b6457e090600090a3606580546001600160a01b0319166001600160a01b0392909216919091179055565b3390565b609c5482111562001576576040805162461bcd60e51b81526020600482015260156024820152741dd859151bdad95b8f97db585e151bdad95b95d859605a1b604482015290519081900360640190fd5b609b54811115620015c4576040805162461bcd60e51b81526020600482015260136024820152721dd85916195d1a0f97db585e16115d1a15d859606a1b604482015290519081900360640190fd5b5050565b6098546040805163979eb13760e01b81526004810185905230602482015290516000926001600160a01b03169163979eb137916044808301928692919082900301818387803b1580156200161b57600080fd5b505af115801562001630573d6000803e3d6000fd5b50506097546040805163095ea7b360e01b81526001600160a01b039283166004820152602481018990529051918616935063095ea7b392506044808201926020929091908290030181600087803b1580156200168b57600080fd5b505af1158015620016a0573d6000803e3d6000fd5b505050506040513d6020811015620016b757600080fd5b50506098546097546040805163095ea7b360e01b81526001600160a01b039283166004820152602481018790529051919092169163095ea7b39160448083019260209291908290030181600087803b1580156200171357600080fd5b505af115801562001728573d6000803e3d6000fd5b505050506040513d60208110156200173f57600080fd5b50506097546098546040805162e8e33760e81b81526001600160a01b038681166004830152928316602482015260448101889052606481018790526084810188905260a48101879052600060c482018190524260e48301529151929093169263e8e33700926101048083019360609383900390910190829087803b158015620017c757600080fd5b505af1158015620017dc573d6000803e3d6000fd5b505050506040513d6060811015620017f357600080fd5b505060995460985462001815916001600160a01b039081169185911662001b6b565b6001600160a01b0381166000908152609d6020526040902084905590509392505050565b6001600160a01b0381166000818152609e60205260408120805460ff19166001908117909155609f8054808301825592527f0bc14066c33013fe88f66e314e4cf150b0b2d4d6451a1a51dbbd1c27cd11de2890910180546001600160a01b03191690921790915560a054620018b49163ffffffff62001c2d16565b60a05550565b600082620018cb575060006200191b565b82820282848281620018d957fe5b0414620019185760405162461bcd60e51b8152600401808060200182810382526021815260200180620042bd6021913960400191505060405180910390fd5b90505b92915050565b60006200191883836040518060400160405280601a81526020017f536166654d6174683a206469766973696f6e206279207a65726f00000000000081525062001c88565b60006200191883836040518060400160405280601e81526020017f536166654d6174683a207375627472616374696f6e206f766572666c6f77000081525062001d2f565b6000808411620019eb5760405162461bcd60e51b815260040180806020018281038252602b8152602001806200432c602b913960400191505060405180910390fd5b600083118015620019fc5750600082115b62001a395760405162461bcd60e51b8152600401808060200182810382526028815260200180620042956028913960400191505060405180910390fd5b600062001a4f856103e563ffffffff620018ba16565b9050600062001a65828563ffffffff620018ba16565b9050600062001a8f8362001a82886103e863ffffffff620018ba16565b9063ffffffff62001c2d16565b905080828162001a9b57fe5b04979650505050505050565b303b1590565b600054610100900460ff168062001ac9575062001ac962001aa7565b8062001ad8575060005460ff16155b62001b155760405162461bcd60e51b815260040180806020018281038252602e815260200180620042fe602e913960400191505060405180910390fd5b600054610100900460ff1615801562001b41576000805460ff1961ff0019909116610100171660011790555b62001b4b62001d8c565b62001b5562001e34565b801562001b68576000805461ff00191690555b50565b600080600062001b7c858562001f37565b604080516bffffffffffffffffffffffff19606094851b811660208084019190915293851b81166034830152825160288184030181526048830184528051908501206001600160f81b031960688401529a90941b9093166069840152607d8301989098527f96e8ac4277198ff8b6f785478aa9a39f403cb768dd02cbee326c3e7da348845f609d808401919091528851808403909101815260bd909201909752805196019590952095945050505050565b60008282018381101562001918576040805162461bcd60e51b815260206004820152601b60248201527f536166654d6174683a206164646974696f6e206f766572666c6f770000000000604482015290519081900360640190fd5b6000818362001d185760405162461bcd60e51b81526004018080602001828103825283818151815260200191508051906020019080838360005b8381101562001cdc57818101518382015260200162001cc2565b50505050905090810190601f16801562001d0a5780820380516001836020036101000a031916815260200191505b509250505060405180910390fd5b50600083858162001d2557fe5b0495945050505050565b6000818484111562001d845760405162461bcd60e51b815260206004820181815283516024840152835190928392604490910191908501908083836000831562001cdc57818101518382015260200162001cc2565b505050900390565b600054610100900460ff168062001da8575062001da862001aa7565b8062001db7575060005460ff16155b62001df45760405162461bcd60e51b815260040180806020018281038252602e815260200180620042fe602e913960400191505060405180910390fd5b600054610100900460ff1615801562001b55576000805460ff1961ff001990911661010017166001179055801562001b68576000805461ff001916905550565b600054610100900460ff168062001e50575062001e5062001aa7565b8062001e5f575060005460ff16155b62001e9c5760405162461bcd60e51b815260040180806020018281038252602e815260200180620042fe602e913960400191505060405180910390fd5b600054610100900460ff1615801562001ec8576000805460ff1961ff0019909116610100171660011790555b600062001ed462001522565b606580546001600160a01b0319166001600160a01b038316908117909155604051919250906000907f8be0079c531659141344cd1fd0a4f28419497f9722a3daafe3b4186f6b6457e0908290a350801562001b68576000805461ff001916905550565b600080826001600160a01b0316846001600160a01b0316141562001f8d5760405162461bcd60e51b8152600401808060200182810382526025815260200180620042706025913960400191505060405180910390fd5b826001600160a01b0316846001600160a01b03161062001faf57828462001fb2565b83835b90925090506001600160a01b03821662002013576040805162461bcd60e51b815260206004820152601e60248201527f556e697377617056324c6962726172793a205a45524f5f414444524553530000604482015290519081900360640190fd5b9250929050565b6113d4806200203783390190565b610e3f806200340b8339019056fe60806040523480156200001157600080fd5b50604051620013d4380380620013d4833981810160405260a08110156200003757600080fd5b81019080805160405193929190846401000000008211156200005857600080fd5b9083019060208201858111156200006e57600080fd5b82516401000000008111828201881017156200008957600080fd5b82525081516020918201929091019080838360005b83811015620000b85781810151838201526020016200009e565b50505050905090810190601f168015620000e65780820380516001836020036101000a031916815260200191505b50604052602001805160405193929190846401000000008211156200010a57600080fd5b9083019060208201858111156200012057600080fd5b82516401000000008111828201881017156200013b57600080fd5b82525081516020918201929091019080838360005b838110156200016a57818101518382015260200162000150565b50505050905090810190601f168015620001985780820380516001836020036101000a031916815260200191505b506040908152602082810151918301516060909301518751929550929350620001c791600391880190620003ad565b508351620001dd906004906020870190620003ad565b506005805460ff191660121790556200020033846001600160e01b036200022e16565b600780546001600160a01b0319166001600160a01b0393909316929092179091556006555062000452915050565b6001600160a01b0382166200028a576040805162461bcd60e51b815260206004820152601f60248201527f45524332303a206d696e7420746f20746865207a65726f206164647265737300604482015290519081900360640190fd5b620002a1600083836001600160e01b036200034616565b620002bd816002546200034b60201b62000c771790919060201c565b6002556001600160a01b03821660009081526020818152604090912054620002f091839062000c776200034b821b17901c565b6001600160a01b0383166000818152602081815260408083209490945583518581529351929391927fddf252ad1be2c89b69c2b068fc378daa952ba7f163c4a11628f55a4df523b3ef9281900390910190a35050565b505050565b600082820183811015620003a6576040805162461bcd60e51b815260206004820152601b60248201527f536166654d6174683a206164646974696f6e206f766572666c6f770000000000604482015290519081900360640190fd5b9392505050565b828054600181600116156101000203166002900490600052602060002090601f016020900481019282601f10620003f057805160ff191683800117855562000420565b8280016001018555821562000420579182015b828111156200042057825182559160200191906001019062000403565b506200042e92915062000432565b5090565b6200044f91905b808211156200042e576000815560010162000439565b90565b610f7280620004626000396000f3fe608060405234801561001057600080fd5b50600436106101005760003560e01c806395d89b4111610097578063b41e664011610066578063b41e664014610310578063caa24df614610334578063d0852f7e1461035c578063dd62ed3e1461038a57610100565b806395d89b41146102a8578063a457c2d7146102b0578063a7e94c02146102dc578063a9059cbb146102e457610100565b8063313ce567116100d3578063313ce5671461021257806339509351146102305780634692a9621461025c57806370a082311461028257610100565b806306fdde0314610105578063095ea7b31461018257806318160ddd146101c257806323b872dd146101dc575b600080fd5b61010d6103b8565b6040805160208082528351818301528351919283929083019185019080838360005b8381101561014757818101518382015260200161012f565b50505050905090810190601f1680156101745780820380516001836020036101000a031916815260200191505b509250505060405180910390f35b6101ae6004803603604081101561019857600080fd5b506001600160a01b03813516906020013561044e565b604080519115158252519081900360200190f35b6101ca61046c565b60408051918252519081900360200190f35b6101ae600480360360608110156101f257600080fd5b506001600160a01b03813581169160208101359091169060400135610472565b61021a6104ff565b6040805160ff9092168252519081900360200190f35b6101ae6004803603604081101561024657600080fd5b506001600160a01b038135169060200135610508565b6101ae6004803603602081101561027257600080fd5b50356001600160a01b031661055c565b6101ca6004803603602081101561029857600080fd5b50356001600160a01b0316610571565b61010d61058c565b6101ae600480360360408110156102c657600080fd5b506001600160a01b0381351690602001356105ed565b6101ca61065b565b6101ae600480360360408110156102fa57600080fd5b506001600160a01b038135169060200135610661565b610318610675565b604080516001600160a01b039092168252519081900360200190f35b61035a6004803603602081101561034a57600080fd5b50356001600160a01b0316610684565b005b61035a6004803603604081101561037257600080fd5b506001600160a01b03813516906020013515156106ef565b6101ca600480360360408110156103a057600080fd5b506001600160a01b0381358116916020013516610761565b60038054604080516020601f60026000196101006001881615020190951694909404938401819004810282018101909252828152606093909290918301828280156104445780601f1061041957610100808354040283529160200191610444565b820191906000526020600020905b81548152906001019060200180831161042757829003601f168201915b5050505050905090565b600061046261045b61078c565b8484610790565b5060015b92915050565b60025490565b600061047f84848461087c565b6104f58461048b61078c565b6104f085604051806060016040528060288152602001610ea7602891396001600160a01b038a166000908152600160205260408120906104c961078c565b6001600160a01b03168152602081019190915260400160002054919063ffffffff610be016565b610790565b5060019392505050565b60055460ff1690565b600061046261051561078c565b846104f0856001600061052661078c565b6001600160a01b03908116825260208083019390935260409182016000908120918c16815292529020549063ffffffff610c7716565b60086020526000908152604090205460ff1681565b6001600160a01b031660009081526020819052604090205490565b60048054604080516020601f60026000196101006001881615020190951694909404938401819004810282018101909252828152606093909290918301828280156104445780601f1061041957610100808354040283529160200191610444565b60006104626105fa61078c565b846104f085604051806060016040528060258152602001610f18602591396001600061062461078c565b6001600160a01b03908116825260208083019390935260409182016000908120918d1681529252902054919063ffffffff610be016565b60065481565b600061046261066e61078c565b848461087c565b6007546001600160a01b031681565b6007546001600160a01b031633146106cd576040805162461bcd60e51b815260206004820152600760248201526610ba30bc26b0b760c91b604482015290519081900360640190fd5b600780546001600160a01b0319166001600160a01b0392909216919091179055565b6007546001600160a01b03163314610738576040805162461bcd60e51b815260206004820152600760248201526610ba30bc26b0b760c91b604482015290519081900360640190fd5b6001600160a01b039091166000908152600860205260409020805460ff19169115919091179055565b6001600160a01b03918216600090815260016020908152604080832093909416825291909152205490565b3390565b6001600160a01b0383166107d55760405162461bcd60e51b8152600401808060200182810382526024815260200180610ef46024913960400191505060405180910390fd5b6001600160a01b03821661081a5760405162461bcd60e51b8152600401808060200182810382526022815260200180610e3e6022913960400191505060405180910390fd5b6001600160a01b03808416600081815260016020908152604080832094871680845294825291829020859055815185815291517f8c5be1e5ebec7d5bd14f71427d1e84f3dd0314c0f7b2291e5b200ac8c7c3b9259281900390910190a3505050565b6001600160a01b0383166108c15760405162461bcd60e51b8152600401808060200182810382526025815260200180610ecf6025913960400191505060405180910390fd5b6001600160a01b0382166109065760405162461bcd60e51b8152600401808060200182810382526023815260200180610e1b6023913960400191505060405180910390fd5b6001600160a01b03831660009081526008602052604090205460ff168061094557506001600160a01b03821660009081526008602052604090205460ff165b15610a2757610955838383610bdb565b61099881604051806060016040528060268152602001610e60602691396001600160a01b038616600090815260208190526040902054919063ffffffff610be016565b6001600160a01b0380851660009081526020819052604080822093909355908416815220546109cd908263ffffffff610c7716565b6001600160a01b038084166000818152602081815260409182902094909455805185815290519193928716927fddf252ad1be2c89b69c2b068fc378daa952ba7f163c4a11628f55a4df523b3ef92918290030190a3610bdb565b6000610a50612710610a4460065485610cd890919063ffffffff16565b9063ffffffff610d3116565b90506000610a64838363ffffffff610d7316565b9050610a71858583610bdb565b600754610a899086906001600160a01b031684610bdb565b610acc83604051806060016040528060268152602001610e60602691396001600160a01b038816600090815260208190526040902054919063ffffffff610be016565b6001600160a01b038087166000908152602081905260408082209390935590861681522054610b01908263ffffffff610c7716565b6001600160a01b038086166000908152602081905260408082209390935560075490911681522054610b39908363ffffffff610c7716565b6007546001600160a01b0390811660009081526020818152604091829020939093558051848152905187831693928916927fddf252ad1be2c89b69c2b068fc378daa952ba7f163c4a11628f55a4df523b3ef928290030190a36007546040805184815290516001600160a01b03928316928816917fddf252ad1be2c89b69c2b068fc378daa952ba7f163c4a11628f55a4df523b3ef919081900360200190a350505b505050565b60008184841115610c6f5760405162461bcd60e51b81526004018080602001828103825283818151815260200191508051906020019080838360005b83811015610c34578181015183820152602001610c1c565b50505050905090810190601f168015610c615780820380516001836020036101000a031916815260200191505b509250505060405180910390fd5b505050900390565b600082820183811015610cd1576040805162461bcd60e51b815260206004820152601b60248201527f536166654d6174683a206164646974696f6e206f766572666c6f770000000000604482015290519081900360640190fd5b9392505050565b600082610ce757506000610466565b82820282848281610cf457fe5b0414610cd15760405162461bcd60e51b8152600401808060200182810382526021815260200180610e866021913960400191505060405180910390fd5b6000610cd183836040518060400160405280601a81526020017f536166654d6174683a206469766973696f6e206279207a65726f000000000000815250610db5565b6000610cd183836040518060400160405280601e81526020017f536166654d6174683a207375627472616374696f6e206f766572666c6f770000815250610be0565b60008183610e045760405162461bcd60e51b8152602060048201818152835160248401528351909283926044909101919085019080838360008315610c34578181015183820152602001610c1c565b506000838581610e1057fe5b049594505050505056fe45524332303a207472616e7366657220746f20746865207a65726f206164647265737345524332303a20617070726f766520746f20746865207a65726f206164647265737345524332303a207472616e7366657220616d6f756e7420657863656564732062616c616e6365536166654d6174683a206d756c7469706c69636174696f6e206f766572666c6f7745524332303a207472616e7366657220616d6f756e74206578636565647320616c6c6f77616e636545524332303a207472616e736665722066726f6d20746865207a65726f206164647265737345524332303a20617070726f76652066726f6d20746865207a65726f206164647265737345524332303a2064656372656173656420616c6c6f77616e63652062656c6f77207a65726fa2646970667358221220fa26f91e106fea7265b082b2803341c62a8e3fa90fcfe5a641112aa3087abb3264736f6c6343000606003360806040523480156200001157600080fd5b5060405162000e3f38038062000e3f833981810160405260608110156200003757600080fd5b81019080805160405193929190846401000000008211156200005857600080fd5b9083019060208201858111156200006e57600080fd5b82516401000000008111828201881017156200008957600080fd5b82525081516020918201929091019080838360005b83811015620000b85781810151838201526020016200009e565b50505050905090810190601f168015620000e65780820380516001836020036101000a031916815260200191505b50604052602001805160405193929190846401000000008211156200010a57600080fd5b9083019060208201858111156200012057600080fd5b82516401000000008111828201881017156200013b57600080fd5b82525081516020918201929091019080838360005b838110156200016a57818101518382015260200162000150565b50505050905090810190601f168015620001985780820380516001836020036101000a031916815260200191505b506040526020908101518551909350620001b992506003918601906200037a565b508151620001cf9060049060208501906200037a565b506005805460ff19166012179055620001f233826001600160e01b03620001fb16565b5050506200041f565b6001600160a01b03821662000257576040805162461bcd60e51b815260206004820152601f60248201527f45524332303a206d696e7420746f20746865207a65726f206164647265737300604482015290519081900360640190fd5b6200026e600083836001600160e01b036200031316565b6200028a816002546200031860201b620008731790919060201c565b6002556001600160a01b03821660009081526020818152604090912054620002bd9183906200087362000318821b17901c565b6001600160a01b0383166000818152602081815260408083209490945583518581529351929391927fddf252ad1be2c89b69c2b068fc378daa952ba7f163c4a11628f55a4df523b3ef9281900390910190a35050565b505050565b60008282018381101562000373576040805162461bcd60e51b815260206004820152601b60248201527f536166654d6174683a206164646974696f6e206f766572666c6f770000000000604482015290519081900360640190fd5b9392505050565b828054600181600116156101000203166002900490600052602060002090601f016020900481019282601f10620003bd57805160ff1916838001178555620003ed565b82800160010185558215620003ed579182015b82811115620003ed578251825591602001919060010190620003d0565b50620003fb929150620003ff565b5090565b6200041c91905b80821115620003fb576000815560010162000406565b90565b610a10806200042f6000396000f3fe608060405234801561001057600080fd5b50600436106100a95760003560e01c8063395093511161007157806339509351146101d957806370a082311461020557806395d89b411461022b578063a457c2d714610233578063a9059cbb1461025f578063dd62ed3e1461028b576100a9565b806306fdde03146100ae578063095ea7b31461012b57806318160ddd1461016b57806323b872dd14610185578063313ce567146101bb575b600080fd5b6100b66102b9565b6040805160208082528351818301528351919283929083019185019080838360005b838110156100f05781810151838201526020016100d8565b50505050905090810190601f16801561011d5780820380516001836020036101000a031916815260200191505b509250505060405180910390f35b6101576004803603604081101561014157600080fd5b506001600160a01b03813516906020013561034f565b604080519115158252519081900360200190f35b61017361036c565b60408051918252519081900360200190f35b6101576004803603606081101561019b57600080fd5b506001600160a01b03813581169160208101359091169060400135610372565b6101c36103ff565b6040805160ff9092168252519081900360200190f35b610157600480360360408110156101ef57600080fd5b506001600160a01b038135169060200135610408565b6101736004803603602081101561021b57600080fd5b50356001600160a01b031661045c565b6100b6610477565b6101576004803603604081101561024957600080fd5b506001600160a01b0381351690602001356104d8565b6101576004803603604081101561027557600080fd5b506001600160a01b038135169060200135610546565b610173600480360360408110156102a157600080fd5b506001600160a01b038135811691602001351661055a565b60038054604080516020601f60026000196101006001881615020190951694909404938401819004810282018101909252828152606093909290918301828280156103455780601f1061031a57610100808354040283529160200191610345565b820191906000526020600020905b81548152906001019060200180831161032857829003601f168201915b5050505050905090565b600061036361035c610585565b8484610589565b50600192915050565b60025490565b600061037f848484610675565b6103f58461038b610585565b6103f085604051806060016040528060288152602001610945602891396001600160a01b038a166000908152600160205260408120906103c9610585565b6001600160a01b03168152602081019190915260400160002054919063ffffffff6107dc16565b610589565b5060019392505050565b60055460ff1690565b6000610363610415610585565b846103f08560016000610426610585565b6001600160a01b03908116825260208083019390935260409182016000908120918c16815292529020549063ffffffff61087316565b6001600160a01b031660009081526020819052604090205490565b60048054604080516020601f60026000196101006001881615020190951694909404938401819004810282018101909252828152606093909290918301828280156103455780601f1061031a57610100808354040283529160200191610345565b60006103636104e5610585565b846103f0856040518060600160405280602581526020016109b6602591396001600061050f610585565b6001600160a01b03908116825260208083019390935260409182016000908120918d1681529252902054919063ffffffff6107dc16565b6000610363610553610585565b8484610675565b6001600160a01b03918216600090815260016020908152604080832093909416825291909152205490565b3390565b6001600160a01b0383166105ce5760405162461bcd60e51b81526004018080602001828103825260248152602001806109926024913960400191505060405180910390fd5b6001600160a01b0382166106135760405162461bcd60e51b81526004018080602001828103825260228152602001806108fd6022913960400191505060405180910390fd5b6001600160a01b03808416600081815260016020908152604080832094871680845294825291829020859055815185815291517f8c5be1e5ebec7d5bd14f71427d1e84f3dd0314c0f7b2291e5b200ac8c7c3b9259281900390910190a3505050565b6001600160a01b0383166106ba5760405162461bcd60e51b815260040180806020018281038252602581526020018061096d6025913960400191505060405180910390fd5b6001600160a01b0382166106ff5760405162461bcd60e51b81526004018080602001828103825260238152602001806108da6023913960400191505060405180910390fd5b61070a8383836108d4565b61074d8160405180606001604052806026815260200161091f602691396001600160a01b038616600090815260208190526040902054919063ffffffff6107dc16565b6001600160a01b038085166000908152602081905260408082209390935590841681522054610782908263ffffffff61087316565b6001600160a01b038084166000818152602081815260409182902094909455805185815290519193928716927fddf252ad1be2c89b69c2b068fc378daa952ba7f163c4a11628f55a4df523b3ef92918290030190a3505050565b6000818484111561086b5760405162461bcd60e51b81526004018080602001828103825283818151815260200191508051906020019080838360005b83811015610830578181015183820152602001610818565b50505050905090810190601f16801561085d5780820380516001836020036101000a031916815260200191505b509250505060405180910390fd5b505050900390565b6000828201838110156108cd576040805162461bcd60e51b815260206004820152601b60248201527f536166654d6174683a206164646974696f6e206f766572666c6f770000000000604482015290519081900360640190fd5b9392505050565b50505056fe45524332303a207472616e7366657220746f20746865207a65726f206164647265737345524332303a20617070726f766520746f20746865207a65726f206164647265737345524332303a207472616e7366657220616d6f756e7420657863656564732062616c616e636545524332303a207472616e7366657220616d6f756e74206578636565647320616c6c6f77616e636545524332303a207472616e736665722066726f6d20746865207a65726f206164647265737345524332303a20617070726f76652066726f6d20746865207a65726f206164647265737345524332303a2064656372656173656420616c6c6f77616e63652062656c6f77207a65726fa26469706673582212208e99a2f76a75c85546e333819d26377093963a40a68cc32c7c13a56c1c0370d964736f6c634300060600334f776e61626c653a206e6577206f776e657220697320746865207a65726f2061646472657373556e697377617056324c6962726172793a204944454e544943414c5f414444524553534553556e697377617056324c6962726172793a20494e53554646494349454e545f4c4951554944495459536166654d6174683a206d756c7469706c69636174696f6e206f766572666c6f774f776e61626c653a2063616c6c6572206973206e6f7420746865206f776e6572436f6e747261637420696e7374616e63652068617320616c7265616479206265656e20696e697469616c697a6564556e697377617056324c6962726172793a20494e53554646494349454e545f494e5055545f414d4f554e54a2646970667358221220e248a343559bc335adf5e50ddaaec967e3e3e14248e83a6909a1a66468ecaece64736f6c63430006060033",
  "linkReferences": {},
  "deployedLinkReferences": {}
}