{
  "_format": "hh-sol-artifact-1",
  "contractName": "XLOCKER",
  "sourceName": "contracts/xlocker.sol",
  "abi": [
    {
      "anonymous": false,
      "inputs": [
        {
          "indexed": true,
          "internalType": "address",
          "name": "previousOwner",
          "type": "address"
        },
        {
          "indexed": true,
          "internalType": "address",
          "name": "newOwner",
          "type": "address"
        }
      ],
      "name": "OwnershipTransferred",
      "type": "event"
    },
    {
      "inputs": [
        {
          "internalType": "uint256",
          "name": "",
          "type": "uint256"
        }
      ],
      "name": "allRegisteredPairs",
      "outputs": [
        {
          "internalType": "address",
          "name": "",
          "type": "address"
        }
      ],
      "stateMutability": "view",
      "type": "function"
    },
    {
      "inputs": [
        {
          "internalType": "contract IXeth",
          "name": "xeth_",
          "type": "address"
        }
      ],
      "name": "initialize",
      "outputs": [],
      "stateMutability": "nonpayable",
      "type": "function"
    },
    {
      "inputs": [
        {
          "internalType": "string",
          "name": "name",
          "type": "string"
        },
        {
          "internalType": "string",
          "name": "symbol",
          "type": "string"
        },
        {
          "internalType": "uint256",
          "name": "wadToken",
          "type": "uint256"
        },
        {
          "internalType": "uint256",
          "name": "wadXeth",
          "type": "uint256"
        }
      ],
      "name": "launchERC20",
      "outputs": [
        {
          "internalType": "address",
          "name": "token_",
          "type": "address"
        },
        {
          "internalType": "address",
          "name": "pair_",
          "type": "address"
        }
      ],
      "stateMutability": "nonpayable",
      "type": "function"
    },
    {
      "inputs": [
        {
          "internalType": "string",
          "name": "name",
          "type": "string"
        },
        {
          "internalType": "string",
          "name": "symbol",
          "type": "string"
        },
        {
          "internalType": "uint256",
          "name": "wadToken",
          "type": "uint256"
        },
        {
          "internalType": "uint256",
          "name": "wadXeth",
          "type": "uint256"
        },
        {
          "internalType": "uint256",
          "name": "taxBips",
          "type": "uint256"
        },
        {
          "internalType": "address",
          "name": "taxMan",
          "type": "address"
        }
      ],
      "name": "launchERC20TransferTax",
      "outputs": [
        {
          "internalType": "address",
          "name": "token_",
          "type": "address"
        },
        {
          "internalType": "address",
          "name": "pair_",
          "type": "address"
        }
      ],
      "stateMutability": "nonpayable",
      "type": "function"
    },
    {
      "inputs": [],
      "name": "owner",
      "outputs": [
        {
          "internalType": "address",
          "name": "",
          "type": "address"
        }
      ],
      "stateMutability": "view",
      "type": "function"
    },
    {
      "inputs": [
        {
          "internalType": "address",
          "name": "",
          "type": "address"
        }
      ],
      "name": "pairRegistered",
      "outputs": [
        {
          "internalType": "bool",
          "name": "",
          "type": "bool"
        }
      ],
      "stateMutability": "view",
      "type": "function"
    },
    {
      "inputs": [
        {
          "internalType": "address",
          "name": "",
          "type": "address"
        }
      ],
      "name": "pairSwept",
      "outputs": [
        {
          "internalType": "uint256",
          "name": "",
          "type": "uint256"
        }
      ],
      "stateMutability": "view",
      "type": "function"
    },
    {
      "inputs": [],
      "name": "renounceOwnership",
      "outputs": [],
      "stateMutability": "nonpayable",
      "type": "function"
    },
    {
      "inputs": [
        {
          "internalType": "contract IUniswapV2Pair[]",
          "name": "pairs",
          "type": "address[]"
        }
      ],
      "name": "sweep",
      "outputs": [],
      "stateMutability": "nonpayable",
      "type": "function"
    },
    {
      "inputs": [
        {
          "internalType": "contract IUniswapV2Pair",
          "name": "pair",
          "type": "address"
        }
      ],
      "name": "sweepAmountAvailable",
      "outputs": [
        {
          "internalType": "uint256",
          "name": "amountAvailable",
          "type": "uint256"
        }
      ],
      "stateMutability": "view",
      "type": "function"
    },
    {
      "inputs": [],
      "name": "totalRegisteredPairs",
      "outputs": [
        {
          "internalType": "uint256",
          "name": "",
          "type": "uint256"
        }
      ],
      "stateMutability": "view",
      "type": "function"
    },
    {
      "inputs": [
        {
          "internalType": "address",
          "name": "newOwner",
          "type": "address"
        }
      ],
      "name": "transferOwnership",
      "outputs": [],
      "stateMutability": "nonpayable",
      "type": "function"
    }
  ],
  "bytecode": "0x608060405234801561001057600080fd5b506140f5806100206000396000f3fe60806040523480156200001157600080fd5b5060043610620000c45760003560e01c8063760fadce116200007b578063760fadce146200032b578063780469bb14620003685780638da5cb5b14620003dc578063c4d66de814620003e6578063d1fb05e8146200040f578063f2fde38b146200043857620000c4565b80630476f4da14620000c95780634205699014620000e5578063478dc96214620001215780634c29ada31462000229578063715018a61462000252578063745f8737146200025e575b600080fd5b620000d362000461565b60408051918252519081900360200190f35b6200010560048036036020811015620000fd57600080fd5b503562000467565b604080516001600160a01b039092168252519081900360200190f35b62000203600480360360c08110156200013957600080fd5b810190602081018135600160201b8111156200015457600080fd5b8201836020820111156200016757600080fd5b803590602001918460018302840111600160201b831117156200018957600080fd5b919390929091602081019035600160201b811115620001a757600080fd5b820183602082011115620001ba57600080fd5b803590602001918460018302840111600160201b83111715620001dc57600080fd5b9193509150803590602081013590604081013590606001356001600160a01b03166200048f565b604080516001600160a01b03938416815291909216602082015281519081900390910190f35b620000d3600480360360208110156200024157600080fd5b50356001600160a01b03166200069b565b6200025c62000c70565b005b62000203600480360360808110156200027657600080fd5b810190602081018135600160201b8111156200029157600080fd5b820183602082011115620002a457600080fd5b803590602001918460018302840111600160201b83111715620002c657600080fd5b919390929091602081019035600160201b811115620002e457600080fd5b820183602082011115620002f757600080fd5b803590602001918460018302840111600160201b831117156200031957600080fd5b91935091508035906020013562000d27565b62000354600480360360208110156200034357600080fd5b50356001600160a01b031662000def565b604080519115158252519081900360200190f35b6200025c600480360360208110156200038057600080fd5b810190602081018135600160201b8111156200039b57600080fd5b820183602082011115620003ae57600080fd5b803590602001918460208302840111600160201b83111715620003d057600080fd5b50909250905062000e04565b620001056200101a565b6200025c60048036036020811015620003fe57600080fd5b50356001600160a01b031662001029565b620000d3600480360360208110156200042757600080fd5b50356001600160a01b031662001194565b6200025c600480360360208110156200045057600080fd5b50356001600160a01b0316620011a6565b60a05481565b609f81815481106200047557fe5b6000918252602090912001546001600160a01b0316905081565b6000806200049e8686620012b6565b6103e8841115620004e5576040805162461bcd60e51b815260206004820152600c60248201526b0746178426970733e313030360a41b604482015290519081900360640190fd5b60008a8a8a8a8a308a604051620004fc9062001da3565b604081018490526001600160a01b03831660608201526080810182905260a08082528101879052806020810160c082018a8a80828437600083820152601f01601f1916909101848103835288815260200190508888808284376000838201819052604051601f909201601f19169093018190039c509a509098505050505050505050f08015801562000592573d6000803e3d6000fd5b506040805163684297bf60e11b815230600482015260006024820181905291519293506001600160a01b0384169263d0852f7e9260448084019391929182900301818387803b158015620005e557600080fd5b505af1158015620005fa573d6000803e3d6000fd5b50505050806001600160a01b031663caa24df6856040518263ffffffff1660e01b815260040180826001600160a01b03166001600160a01b03168152602001915050600060405180830381600087803b1580156200065757600080fd5b505af11580156200066c573d6000803e3d6000fd5b50505050809250620006808787856200134d565b91506200068d82620015be565b509850989650505050505050565b6001600160a01b0381166000908152609e602052604081205460ff1662000701576040805162461bcd60e51b81526020600482015260156024820152742170616972526567697374657265645b706169725d60581b604482015290519081900360640190fd5b60008090506000609860009054906101000a90046001600160a01b03166001600160a01b0316846001600160a01b0316630dfe16816040518163ffffffff1660e01b815260040160206040518083038186803b1580156200076157600080fd5b505afa15801562000776573d6000803e3d6000fd5b505050506040513d60208110156200078d57600080fd5b50516001600160a01b03161415620008135760019150836001600160a01b031663d21220a76040518163ffffffff1660e01b815260040160206040518083038186803b158015620007dd57600080fd5b505afa158015620007f2573d6000803e3d6000fd5b505050506040513d60208110156200080957600080fd5b5051905062000950565b6098546040805163d21220a760e01b815290516001600160a01b039283169287169163d21220a7916004808301926020929190829003018186803b1580156200085b57600080fd5b505afa15801562000870573d6000803e3d6000fd5b505050506040513d60208110156200088757600080fd5b50516001600160a01b031614620008e5576040805162461bcd60e51b815260206004820152601c60248201527f21706169722e746f6b656e583d3d61646472657373285f786574682900000000604482015290519081900360640190fd5b836001600160a01b0316630dfe16816040518163ffffffff1660e01b815260040160206040518083038186803b1580156200091f57600080fd5b505afa15801562000934573d6000803e3d6000fd5b505050506040513d60208110156200094b57600080fd5b505190505b6000806000866001600160a01b0316630902f1ac6040518163ffffffff1660e01b815260040160606040518083038186803b1580156200098f57600080fd5b505afa158015620009a4573d6000803e3d6000fd5b505050506040513d6060811015620009bb57600080fd5b50805160208083015160409384015184516370a0823160e01b8152600060048201819052955194985091965094506001600160a01b038b16926370a0823192602480840193919291829003018186803b15801562000a1857600080fd5b505afa15801562000a2d573d6000803e3d6000fd5b505050506040513d602081101562000a4457600080fd5b5051604080516318160ddd60e01b815290519192506000916001600160a01b038b16916318160ddd916004808301926020929190829003018186803b15801562000a8d57600080fd5b505afa15801562000aa2573d6000803e3d6000fd5b505050506040513d602081101562000ab957600080fd5b50519050600062000b028262000af5858b62000ad6578862000ad8565b895b6dffffffffffffffffffffffffffff169063ffffffff6200163f16565b9063ffffffff620016a616565b9050600062000b1d8362000af5868c62000ad6578a62000ad8565b90506000886001600160a01b03166318160ddd6040518163ffffffff1660e01b815260040160206040518083038186803b15801562000b5b57600080fd5b505afa15801562000b70573d6000803e3d6000fd5b505050506040513d602081101562000b8757600080fd5b505182141562000b9957508162000c34565b62000c3162000c2362000c1b848c6001600160a01b03166318160ddd6040518163ffffffff1660e01b815260040160206040518083038186803b15801562000be057600080fd5b505afa15801562000bf5573d6000803e3d6000fd5b505050506040513d602081101562000c0c57600080fd5b50519063ffffffff620016ea16565b84866200172e565b849063ffffffff620016ea16565b90505b6001600160a01b038c166000908152609d602052604090205462000c6090829063ffffffff620016ea16565b9c9b505050505050505050505050565b62000c7a6200182c565b6065546001600160a01b0390811691161462000cdd576040805162461bcd60e51b815260206004820181905260248201527f4f776e61626c653a2063616c6c6572206973206e6f7420746865206f776e6572604482015290519081900360640190fd5b6065546040516000916001600160a01b0316907f8be0079c531659141344cd1fd0a4f28419497f9722a3daafe3b4186f6b6457e0908390a3606580546001600160a01b0319169055565b60008062000d368484620012b6565b878787878760405162000d499062001db1565b6040810182905260608082528101859052806020810160808201888880828437600083820152601f01601f1916909101848103835286815260200190508686808284376000838201819052604051601f909201601f19169093018190039a509850909650505050505050f08015801562000dc7573d6000803e3d6000fd5b50915062000dd78484846200134d565b905062000de481620015be565b965096945050505050565b609e6020526000908152604090205460ff1681565b610100811062000e4f576040805162461bcd60e51b81526020600482015260116024820152703830b4b939973632b733ba341f1e991a9b60791b604482015290519081900360640190fd5b60005b60ff81168211156200101557600083838360ff1681811062000e7057fe5b905060200201356001600160a01b03169050600062000e8f826200069b565b905080156200100a576001600160a01b038281166000908152609d6020526040808220805485019055609854609a54825163979eb13760e01b81526004808804908201819052918616602482015292519094919091169263979eb137926044808201939182900301818387803b15801562000f0957600080fd5b505af115801562000f1e573d6000803e3d6000fd5b5050609854609b546040805163979eb13760e01b81526002870260048201526001600160a01b039283166024820152905191909216935063979eb1379250604480830192600092919082900301818387803b15801562000f7d57600080fd5b505af115801562000f92573d6000803e3d6000fd5b5050609854609c546040805163979eb13760e01b8152600481018790526001600160a01b039283166024820152905191909216935063979eb1379250604480830192600092919082900301818387803b15801562000fef57600080fd5b505af115801562001004573d6000803e3d6000fd5b50505050505b505060010162000e52565b505050565b6065546001600160a01b031690565b600054610100900460ff16806200104557506200104562001830565b8062001054575060005460ff16155b620010915760405162461bcd60e51b815260040180806020018281038252602e81526020018062004067602e913960400191505060405180910390fd5b600054610100900460ff16158015620010bd576000805460ff1961ff0019909116610100171660011790555b620010c762001836565b609780546001600160a01b0319908116737a250d5630b4cf539739df2c5dacb4c659f2488d17909155609980548216735c69bee701ef814a2b6a3edd4b1652cb9cc5aa6f179055609880546001600160a01b038516908316179055609a805482167373a07158324782a39d2dcd5b8d9160b8e3018b7d179055609b8054821673d1ccc07177c0c27ab78cf991ba6c4eb4edc68f31179055609c805490911673cc2faea967b5b51151b7b070f6288ad06f96ba42179055801562001190576000805461ff00191690555b5050565b609d6020526000908152604090205481565b620011b06200182c565b6065546001600160a01b0390811691161462001213576040805162461bcd60e51b815260206004820181905260248201527f4f776e61626c653a2063616c6c6572206973206e6f7420746865206f776e6572604482015290519081900360640190fd5b6001600160a01b0381166200125a5760405162461bcd60e51b815260040180806020018281038252602681526020018062003fd36026913960400191505060405180910390fd5b6065546040516001600160a01b038084169216907f8be0079c531659141344cd1fd0a4f28419497f9722a3daafe3b4186f6b6457e090600090a3606580546001600160a01b0319166001600160a01b0392909216919091179055565b600160641b82111562001302576040805162461bcd60e51b815260206004820152600f60248201526e0776164546f6b656e3e322a2a31303608c1b604482015290519081900360640190fd5b600160641b81111562001190576040805162461bcd60e51b815260206004820152600e60248201526d0776164586574683e322a2a3130360941b604482015290519081900360640190fd5b6098546040805163979eb13760e01b81526004810185905230602482015290516000926001600160a01b03169163979eb137916044808301928692919082900301818387803b158015620013a057600080fd5b505af1158015620013b5573d6000803e3d6000fd5b50506097546040805163095ea7b360e01b81526001600160a01b039283166004820152602481018990529051918616935063095ea7b392506044808201926020929091908290030181600087803b1580156200141057600080fd5b505af115801562001425573d6000803e3d6000fd5b505050506040513d60208110156200143c57600080fd5b50506098546097546040805163095ea7b360e01b81526001600160a01b039283166004820152602481018790529051919092169163095ea7b39160448083019260209291908290030181600087803b1580156200149857600080fd5b505af1158015620014ad573d6000803e3d6000fd5b505050506040513d6020811015620014c457600080fd5b50506097546098546040805162e8e33760e81b81526001600160a01b038681166004830152928316602482015260448101889052606481018790526084810188905260a48101879052600060c482018190524260e48301529151929093169263e8e33700926101048083019360609383900390910190829087803b1580156200154c57600080fd5b505af115801562001561573d6000803e3d6000fd5b505050506040513d60608110156200157857600080fd5b50506099546098546200159a916001600160a01b0390811691859116620018f4565b6001600160a01b0381166000908152609d6020526040902084905590509392505050565b6001600160a01b0381166000818152609e60205260408120805460ff19166001908117909155609f8054808301825592527f0bc14066c33013fe88f66e314e4cf150b0b2d4d6451a1a51dbbd1c27cd11de2890910180546001600160a01b03191690921790915560a054620016399163ffffffff620019b616565b60a05550565b6000826200165057506000620016a0565b828202828482816200165e57fe5b04146200169d5760405162461bcd60e51b8152600401808060200182810382526021815260200180620040466021913960400191505060405180910390fd5b90505b92915050565b60006200169d83836040518060400160405280601a81526020017f536166654d6174683a206469766973696f6e206279207a65726f00000000000081525062001a11565b60006200169d83836040518060400160405280601e81526020017f536166654d6174683a207375627472616374696f6e206f766572666c6f77000081525062001ab8565b6000808411620017705760405162461bcd60e51b815260040180806020018281038252602b81526020018062004095602b913960400191505060405180910390fd5b600083118015620017815750600082115b620017be5760405162461bcd60e51b81526004018080602001828103825260288152602001806200401e6028913960400191505060405180910390fd5b6000620017d4856103e563ffffffff6200163f16565b90506000620017ea828563ffffffff6200163f16565b90506000620018148362001807886103e863ffffffff6200163f16565b9063ffffffff620019b616565b90508082816200182057fe5b04979650505050505050565b3390565b303b1590565b600054610100900460ff16806200185257506200185262001830565b8062001861575060005460ff16155b6200189e5760405162461bcd60e51b815260040180806020018281038252602e81526020018062004067602e913960400191505060405180910390fd5b600054610100900460ff16158015620018ca576000805460ff1961ff0019909116610100171660011790555b620018d462001b15565b620018de62001bbd565b8015620018f1576000805461ff00191690555b50565b600080600062001905858562001cc0565b604080516bffffffffffffffffffffffff19606094851b811660208084019190915293851b81166034830152825160288184030181526048830184528051908501206001600160f81b031960688401529a90941b9093166069840152607d8301989098527f96e8ac4277198ff8b6f785478aa9a39f403cb768dd02cbee326c3e7da348845f609d808401919091528851808403909101815260bd909201909752805196019590952095945050505050565b6000828201838110156200169d576040805162461bcd60e51b815260206004820152601b60248201527f536166654d6174683a206164646974696f6e206f766572666c6f770000000000604482015290519081900360640190fd5b6000818362001aa15760405162461bcd60e51b81526004018080602001828103825283818151815260200191508051906020019080838360005b8381101562001a6557818101518382015260200162001a4b565b50505050905090810190601f16801562001a935780820380516001836020036101000a031916815260200191505b509250505060405180910390fd5b50600083858162001aae57fe5b0495945050505050565b6000818484111562001b0d5760405162461bcd60e51b815260206004820181815283516024840152835190928392604490910191908501908083836000831562001a6557818101518382015260200162001a4b565b505050900390565b600054610100900460ff168062001b31575062001b3162001830565b8062001b40575060005460ff16155b62001b7d5760405162461bcd60e51b815260040180806020018281038252602e81526020018062004067602e913960400191505060405180910390fd5b600054610100900460ff16158015620018de576000805460ff1961ff0019909116610100171660011790558015620018f1576000805461ff001916905550565b600054610100900460ff168062001bd9575062001bd962001830565b8062001be8575060005460ff16155b62001c255760405162461bcd60e51b815260040180806020018281038252602e81526020018062004067602e913960400191505060405180910390fd5b600054610100900460ff1615801562001c51576000805460ff1961ff0019909116610100171660011790555b600062001c5d6200182c565b606580546001600160a01b0319166001600160a01b038316908117909155604051919250906000907f8be0079c531659141344cd1fd0a4f28419497f9722a3daafe3b4186f6b6457e0908290a3508015620018f1576000805461ff001916905550565b600080826001600160a01b0316846001600160a01b0316141562001d165760405162461bcd60e51b815260040180806020018281038252602581526020018062003ff96025913960400191505060405180910390fd5b826001600160a01b0316846001600160a01b03161062001d3857828462001d3b565b83835b90925090506001600160a01b03821662001d9c576040805162461bcd60e51b815260206004820152601e60248201527f556e697377617056324c6962726172793a205a45524f5f414444524553530000604482015290519081900360640190fd5b9250929050565b6113d48062001dc083390190565b610e3f80620031948339019056fe60806040523480156200001157600080fd5b50604051620013d4380380620013d4833981810160405260a08110156200003757600080fd5b81019080805160405193929190846401000000008211156200005857600080fd5b9083019060208201858111156200006e57600080fd5b82516401000000008111828201881017156200008957600080fd5b82525081516020918201929091019080838360005b83811015620000b85781810151838201526020016200009e565b50505050905090810190601f168015620000e65780820380516001836020036101000a031916815260200191505b50604052602001805160405193929190846401000000008211156200010a57600080fd5b9083019060208201858111156200012057600080fd5b82516401000000008111828201881017156200013b57600080fd5b82525081516020918201929091019080838360005b838110156200016a57818101518382015260200162000150565b50505050905090810190601f168015620001985780820380516001836020036101000a031916815260200191505b506040908152602082810151918301516060909301518751929550929350620001c791600391880190620003ad565b508351620001dd906004906020870190620003ad565b506005805460ff191660121790556200020033846001600160e01b036200022e16565b600780546001600160a01b0319166001600160a01b0393909316929092179091556006555062000452915050565b6001600160a01b0382166200028a576040805162461bcd60e51b815260206004820152601f60248201527f45524332303a206d696e7420746f20746865207a65726f206164647265737300604482015290519081900360640190fd5b620002a1600083836001600160e01b036200034616565b620002bd816002546200034b60201b62000c771790919060201c565b6002556001600160a01b03821660009081526020818152604090912054620002f091839062000c776200034b821b17901c565b6001600160a01b0383166000818152602081815260408083209490945583518581529351929391927fddf252ad1be2c89b69c2b068fc378daa952ba7f163c4a11628f55a4df523b3ef9281900390910190a35050565b505050565b600082820183811015620003a6576040805162461bcd60e51b815260206004820152601b60248201527f536166654d6174683a206164646974696f6e206f766572666c6f770000000000604482015290519081900360640190fd5b9392505050565b828054600181600116156101000203166002900490600052602060002090601f016020900481019282601f10620003f057805160ff191683800117855562000420565b8280016001018555821562000420579182015b828111156200042057825182559160200191906001019062000403565b506200042e92915062000432565b5090565b6200044f91905b808211156200042e576000815560010162000439565b90565b610f7280620004626000396000f3fe608060405234801561001057600080fd5b50600436106101005760003560e01c806395d89b4111610097578063b41e664011610066578063b41e664014610310578063caa24df614610334578063d0852f7e1461035c578063dd62ed3e1461038a57610100565b806395d89b41146102a8578063a457c2d7146102b0578063a7e94c02146102dc578063a9059cbb146102e457610100565b8063313ce567116100d3578063313ce5671461021257806339509351146102305780634692a9621461025c57806370a082311461028257610100565b806306fdde0314610105578063095ea7b31461018257806318160ddd146101c257806323b872dd146101dc575b600080fd5b61010d6103b8565b6040805160208082528351818301528351919283929083019185019080838360005b8381101561014757818101518382015260200161012f565b50505050905090810190601f1680156101745780820380516001836020036101000a031916815260200191505b509250505060405180910390f35b6101ae6004803603604081101561019857600080fd5b506001600160a01b03813516906020013561044e565b604080519115158252519081900360200190f35b6101ca61046c565b60408051918252519081900360200190f35b6101ae600480360360608110156101f257600080fd5b506001600160a01b03813581169160208101359091169060400135610472565b61021a6104ff565b6040805160ff9092168252519081900360200190f35b6101ae6004803603604081101561024657600080fd5b506001600160a01b038135169060200135610508565b6101ae6004803603602081101561027257600080fd5b50356001600160a01b031661055c565b6101ca6004803603602081101561029857600080fd5b50356001600160a01b0316610571565b61010d61058c565b6101ae600480360360408110156102c657600080fd5b506001600160a01b0381351690602001356105ed565b6101ca61065b565b6101ae600480360360408110156102fa57600080fd5b506001600160a01b038135169060200135610661565b610318610675565b604080516001600160a01b039092168252519081900360200190f35b61035a6004803603602081101561034a57600080fd5b50356001600160a01b0316610684565b005b61035a6004803603604081101561037257600080fd5b506001600160a01b03813516906020013515156106ef565b6101ca600480360360408110156103a057600080fd5b506001600160a01b0381358116916020013516610761565b60038054604080516020601f60026000196101006001881615020190951694909404938401819004810282018101909252828152606093909290918301828280156104445780601f1061041957610100808354040283529160200191610444565b820191906000526020600020905b81548152906001019060200180831161042757829003601f168201915b5050505050905090565b600061046261045b61078c565b8484610790565b5060015b92915050565b60025490565b600061047f84848461087c565b6104f58461048b61078c565b6104f085604051806060016040528060288152602001610ea7602891396001600160a01b038a166000908152600160205260408120906104c961078c565b6001600160a01b03168152602081019190915260400160002054919063ffffffff610be016565b610790565b5060019392505050565b60055460ff1690565b600061046261051561078c565b846104f0856001600061052661078c565b6001600160a01b03908116825260208083019390935260409182016000908120918c16815292529020549063ffffffff610c7716565b60086020526000908152604090205460ff1681565b6001600160a01b031660009081526020819052604090205490565b60048054604080516020601f60026000196101006001881615020190951694909404938401819004810282018101909252828152606093909290918301828280156104445780601f1061041957610100808354040283529160200191610444565b60006104626105fa61078c565b846104f085604051806060016040528060258152602001610f18602591396001600061062461078c565b6001600160a01b03908116825260208083019390935260409182016000908120918d1681529252902054919063ffffffff610be016565b60065481565b600061046261066e61078c565b848461087c565b6007546001600160a01b031681565b6007546001600160a01b031633146106cd576040805162461bcd60e51b815260206004820152600760248201526610ba30bc26b0b760c91b604482015290519081900360640190fd5b600780546001600160a01b0319166001600160a01b0392909216919091179055565b6007546001600160a01b03163314610738576040805162461bcd60e51b815260206004820152600760248201526610ba30bc26b0b760c91b604482015290519081900360640190fd5b6001600160a01b039091166000908152600860205260409020805460ff19169115919091179055565b6001600160a01b03918216600090815260016020908152604080832093909416825291909152205490565b3390565b6001600160a01b0383166107d55760405162461bcd60e51b8152600401808060200182810382526024815260200180610ef46024913960400191505060405180910390fd5b6001600160a01b03821661081a5760405162461bcd60e51b8152600401808060200182810382526022815260200180610e3e6022913960400191505060405180910390fd5b6001600160a01b03808416600081815260016020908152604080832094871680845294825291829020859055815185815291517f8c5be1e5ebec7d5bd14f71427d1e84f3dd0314c0f7b2291e5b200ac8c7c3b9259281900390910190a3505050565b6001600160a01b0383166108c15760405162461bcd60e51b8152600401808060200182810382526025815260200180610ecf6025913960400191505060405180910390fd5b6001600160a01b0382166109065760405162461bcd60e51b8152600401808060200182810382526023815260200180610e1b6023913960400191505060405180910390fd5b6001600160a01b03831660009081526008602052604090205460ff168061094557506001600160a01b03821660009081526008602052604090205460ff165b15610a2757610955838383610bdb565b61099881604051806060016040528060268152602001610e60602691396001600160a01b038616600090815260208190526040902054919063ffffffff610be016565b6001600160a01b0380851660009081526020819052604080822093909355908416815220546109cd908263ffffffff610c7716565b6001600160a01b038084166000818152602081815260409182902094909455805185815290519193928716927fddf252ad1be2c89b69c2b068fc378daa952ba7f163c4a11628f55a4df523b3ef92918290030190a3610bdb565b6000610a50612710610a4460065485610cd890919063ffffffff16565b9063ffffffff610d3116565b90506000610a64838363ffffffff610d7316565b9050610a71858583610bdb565b600754610a899086906001600160a01b031684610bdb565b610acc83604051806060016040528060268152602001610e60602691396001600160a01b038816600090815260208190526040902054919063ffffffff610be016565b6001600160a01b038087166000908152602081905260408082209390935590861681522054610b01908263ffffffff610c7716565b6001600160a01b038086166000908152602081905260408082209390935560075490911681522054610b39908363ffffffff610c7716565b6007546001600160a01b0390811660009081526020818152604091829020939093558051848152905187831693928916927fddf252ad1be2c89b69c2b068fc378daa952ba7f163c4a11628f55a4df523b3ef928290030190a36007546040805184815290516001600160a01b03928316928816917fddf252ad1be2c89b69c2b068fc378daa952ba7f163c4a11628f55a4df523b3ef919081900360200190a350505b505050565b60008184841115610c6f5760405162461bcd60e51b81526004018080602001828103825283818151815260200191508051906020019080838360005b83811015610c34578181015183820152602001610c1c565b50505050905090810190601f168015610c615780820380516001836020036101000a031916815260200191505b509250505060405180910390fd5b505050900390565b600082820183811015610cd1576040805162461bcd60e51b815260206004820152601b60248201527f536166654d6174683a206164646974696f6e206f766572666c6f770000000000604482015290519081900360640190fd5b9392505050565b600082610ce757506000610466565b82820282848281610cf457fe5b0414610cd15760405162461bcd60e51b8152600401808060200182810382526021815260200180610e866021913960400191505060405180910390fd5b6000610cd183836040518060400160405280601a81526020017f536166654d6174683a206469766973696f6e206279207a65726f000000000000815250610db5565b6000610cd183836040518060400160405280601e81526020017f536166654d6174683a207375627472616374696f6e206f766572666c6f770000815250610be0565b60008183610e045760405162461bcd60e51b8152602060048201818152835160248401528351909283926044909101919085019080838360008315610c34578181015183820152602001610c1c565b506000838581610e1057fe5b049594505050505056fe45524332303a207472616e7366657220746f20746865207a65726f206164647265737345524332303a20617070726f766520746f20746865207a65726f206164647265737345524332303a207472616e7366657220616d6f756e7420657863656564732062616c616e6365536166654d6174683a206d756c7469706c69636174696f6e206f766572666c6f7745524332303a207472616e7366657220616d6f756e74206578636565647320616c6c6f77616e636545524332303a207472616e736665722066726f6d20746865207a65726f206164647265737345524332303a20617070726f76652066726f6d20746865207a65726f206164647265737345524332303a2064656372656173656420616c6c6f77616e63652062656c6f77207a65726fa2646970667358221220fa26f91e106fea7265b082b2803341c62a8e3fa90fcfe5a641112aa3087abb3264736f6c6343000606003360806040523480156200001157600080fd5b5060405162000e3f38038062000e3f833981810160405260608110156200003757600080fd5b81019080805160405193929190846401000000008211156200005857600080fd5b9083019060208201858111156200006e57600080fd5b82516401000000008111828201881017156200008957600080fd5b82525081516020918201929091019080838360005b83811015620000b85781810151838201526020016200009e565b50505050905090810190601f168015620000e65780820380516001836020036101000a031916815260200191505b50604052602001805160405193929190846401000000008211156200010a57600080fd5b9083019060208201858111156200012057600080fd5b82516401000000008111828201881017156200013b57600080fd5b82525081516020918201929091019080838360005b838110156200016a57818101518382015260200162000150565b50505050905090810190601f168015620001985780820380516001836020036101000a031916815260200191505b506040526020908101518551909350620001b992506003918601906200037a565b508151620001cf9060049060208501906200037a565b506005805460ff19166012179055620001f233826001600160e01b03620001fb16565b5050506200041f565b6001600160a01b03821662000257576040805162461bcd60e51b815260206004820152601f60248201527f45524332303a206d696e7420746f20746865207a65726f206164647265737300604482015290519081900360640190fd5b6200026e600083836001600160e01b036200031316565b6200028a816002546200031860201b620008731790919060201c565b6002556001600160a01b03821660009081526020818152604090912054620002bd9183906200087362000318821b17901c565b6001600160a01b0383166000818152602081815260408083209490945583518581529351929391927fddf252ad1be2c89b69c2b068fc378daa952ba7f163c4a11628f55a4df523b3ef9281900390910190a35050565b505050565b60008282018381101562000373576040805162461bcd60e51b815260206004820152601b60248201527f536166654d6174683a206164646974696f6e206f766572666c6f770000000000604482015290519081900360640190fd5b9392505050565b828054600181600116156101000203166002900490600052602060002090601f016020900481019282601f10620003bd57805160ff1916838001178555620003ed565b82800160010185558215620003ed579182015b82811115620003ed578251825591602001919060010190620003d0565b50620003fb929150620003ff565b5090565b6200041c91905b80821115620003fb576000815560010162000406565b90565b610a10806200042f6000396000f3fe608060405234801561001057600080fd5b50600436106100a95760003560e01c8063395093511161007157806339509351146101d957806370a082311461020557806395d89b411461022b578063a457c2d714610233578063a9059cbb1461025f578063dd62ed3e1461028b576100a9565b806306fdde03146100ae578063095ea7b31461012b57806318160ddd1461016b57806323b872dd14610185578063313ce567146101bb575b600080fd5b6100b66102b9565b6040805160208082528351818301528351919283929083019185019080838360005b838110156100f05781810151838201526020016100d8565b50505050905090810190601f16801561011d5780820380516001836020036101000a031916815260200191505b509250505060405180910390f35b6101576004803603604081101561014157600080fd5b506001600160a01b03813516906020013561034f565b604080519115158252519081900360200190f35b61017361036c565b60408051918252519081900360200190f35b6101576004803603606081101561019b57600080fd5b506001600160a01b03813581169160208101359091169060400135610372565b6101c36103ff565b6040805160ff9092168252519081900360200190f35b610157600480360360408110156101ef57600080fd5b506001600160a01b038135169060200135610408565b6101736004803603602081101561021b57600080fd5b50356001600160a01b031661045c565b6100b6610477565b6101576004803603604081101561024957600080fd5b506001600160a01b0381351690602001356104d8565b6101576004803603604081101561027557600080fd5b506001600160a01b038135169060200135610546565b610173600480360360408110156102a157600080fd5b506001600160a01b038135811691602001351661055a565b60038054604080516020601f60026000196101006001881615020190951694909404938401819004810282018101909252828152606093909290918301828280156103455780601f1061031a57610100808354040283529160200191610345565b820191906000526020600020905b81548152906001019060200180831161032857829003601f168201915b5050505050905090565b600061036361035c610585565b8484610589565b50600192915050565b60025490565b600061037f848484610675565b6103f58461038b610585565b6103f085604051806060016040528060288152602001610945602891396001600160a01b038a166000908152600160205260408120906103c9610585565b6001600160a01b03168152602081019190915260400160002054919063ffffffff6107dc16565b610589565b5060019392505050565b60055460ff1690565b6000610363610415610585565b846103f08560016000610426610585565b6001600160a01b03908116825260208083019390935260409182016000908120918c16815292529020549063ffffffff61087316565b6001600160a01b031660009081526020819052604090205490565b60048054604080516020601f60026000196101006001881615020190951694909404938401819004810282018101909252828152606093909290918301828280156103455780601f1061031a57610100808354040283529160200191610345565b60006103636104e5610585565b846103f0856040518060600160405280602581526020016109b6602591396001600061050f610585565b6001600160a01b03908116825260208083019390935260409182016000908120918d1681529252902054919063ffffffff6107dc16565b6000610363610553610585565b8484610675565b6001600160a01b03918216600090815260016020908152604080832093909416825291909152205490565b3390565b6001600160a01b0383166105ce5760405162461bcd60e51b81526004018080602001828103825260248152602001806109926024913960400191505060405180910390fd5b6001600160a01b0382166106135760405162461bcd60e51b81526004018080602001828103825260228152602001806108fd6022913960400191505060405180910390fd5b6001600160a01b03808416600081815260016020908152604080832094871680845294825291829020859055815185815291517f8c5be1e5ebec7d5bd14f71427d1e84f3dd0314c0f7b2291e5b200ac8c7c3b9259281900390910190a3505050565b6001600160a01b0383166106ba5760405162461bcd60e51b815260040180806020018281038252602581526020018061096d6025913960400191505060405180910390fd5b6001600160a01b0382166106ff5760405162461bcd60e51b81526004018080602001828103825260238152602001806108da6023913960400191505060405180910390fd5b61070a8383836108d4565b61074d8160405180606001604052806026815260200161091f602691396001600160a01b038616600090815260208190526040902054919063ffffffff6107dc16565b6001600160a01b038085166000908152602081905260408082209390935590841681522054610782908263ffffffff61087316565b6001600160a01b038084166000818152602081815260409182902094909455805185815290519193928716927fddf252ad1be2c89b69c2b068fc378daa952ba7f163c4a11628f55a4df523b3ef92918290030190a3505050565b6000818484111561086b5760405162461bcd60e51b81526004018080602001828103825283818151815260200191508051906020019080838360005b83811015610830578181015183820152602001610818565b50505050905090810190601f16801561085d5780820380516001836020036101000a031916815260200191505b509250505060405180910390fd5b505050900390565b6000828201838110156108cd576040805162461bcd60e51b815260206004820152601b60248201527f536166654d6174683a206164646974696f6e206f766572666c6f770000000000604482015290519081900360640190fd5b9392505050565b50505056fe45524332303a207472616e7366657220746f20746865207a65726f206164647265737345524332303a20617070726f766520746f20746865207a65726f206164647265737345524332303a207472616e7366657220616d6f756e7420657863656564732062616c616e636545524332303a207472616e7366657220616d6f756e74206578636565647320616c6c6f77616e636545524332303a207472616e736665722066726f6d20746865207a65726f206164647265737345524332303a20617070726f76652066726f6d20746865207a65726f206164647265737345524332303a2064656372656173656420616c6c6f77616e63652062656c6f77207a65726fa26469706673582212208e99a2f76a75c85546e333819d26377093963a40a68cc32c7c13a56c1c0370d964736f6c634300060600334f776e61626c653a206e6577206f776e657220697320746865207a65726f2061646472657373556e697377617056324c6962726172793a204944454e544943414c5f414444524553534553556e697377617056324c6962726172793a20494e53554646494349454e545f4c4951554944495459536166654d6174683a206d756c7469706c69636174696f6e206f766572666c6f77436f6e747261637420696e7374616e63652068617320616c7265616479206265656e20696e697469616c697a6564556e697377617056324c6962726172793a20494e53554646494349454e545f494e5055545f414d4f554e54a26469706673582212202ad91aa4166551ffac6ae56a1a75049425455e7263af3e5d139ef9e8424d8aa964736f6c63430006060033",
  "linkReferences": {},
  "deployedLinkReferences": {}
}