{
  "_format": "hh-sol-artifact-1",
  "contractName": "XETH",
  "sourceName": "contracts/xeth.sol",
  "abi": [
    {
      "inputs": [],
      "stateMutability": "nonpayable",
      "type": "constructor"
    },
    {
      "anonymous": false,
      "inputs": [
        {
          "indexed": true,
          "internalType": "address",
          "name": "src",
          "type": "address"
        },
        {
          "indexed": true,
          "internalType": "address",
          "name": "guy",
          "type": "address"
        },
        {
          "indexed": false,
          "internalType": "uint256",
          "name": "wad",
          "type": "uint256"
        }
      ],
      "name": "Approval",
      "type": "event"
    },
    {
      "anonymous": false,
      "inputs": [
        {
          "indexed": true,
          "internalType": "address",
          "name": "dst",
          "type": "address"
        },
        {
          "indexed": false,
          "internalType": "uint256",
          "name": "wad",
          "type": "uint256"
        }
      ],
      "name": "Deposit",
      "type": "event"
    },
    {
      "anonymous": false,
      "inputs": [
        {
          "indexed": true,
          "internalType": "bytes32",
          "name": "role",
          "type": "bytes32"
        },
        {
          "indexed": true,
          "internalType": "address",
          "name": "account",
          "type": "address"
        },
        {
          "indexed": true,
          "internalType": "address",
          "name": "sender",
          "type": "address"
        }
      ],
      "name": "RoleGranted",
      "type": "event"
    },
    {
      "anonymous": false,
      "inputs": [
        {
          "indexed": true,
          "internalType": "bytes32",
          "name": "role",
          "type": "bytes32"
        },
        {
          "indexed": true,
          "internalType": "address",
          "name": "account",
          "type": "address"
        },
        {
          "indexed": true,
          "internalType": "address",
          "name": "sender",
          "type": "address"
        }
      ],
      "name": "RoleRevoked",
      "type": "event"
    },
    {
      "anonymous": false,
      "inputs": [
        {
          "indexed": true,
          "internalType": "address",
          "name": "src",
          "type": "address"
        },
        {
          "indexed": true,
          "internalType": "address",
          "name": "dst",
          "type": "address"
        },
        {
          "indexed": false,
          "internalType": "uint256",
          "name": "wad",
          "type": "uint256"
        }
      ],
      "name": "Transfer",
      "type": "event"
    },
    {
      "anonymous": false,
      "inputs": [
        {
          "indexed": true,
          "internalType": "address",
          "name": "src",
          "type": "address"
        },
        {
          "indexed": false,
          "internalType": "uint256",
          "name": "wad",
          "type": "uint256"
        }
      ],
      "name": "Withdrawal",
      "type": "event"
    },
    {
      "anonymous": false,
      "inputs": [
        {
          "indexed": false,
          "internalType": "uint256",
          "name": "wad",
          "type": "uint256"
        },
        {
          "indexed": false,
          "internalType": "address",
          "name": "dst",
          "type": "address"
        }
      ],
      "name": "XlockerMint",
      "type": "event"
    },
    {
      "inputs": [],
      "name": "DEFAULT_ADMIN_ROLE",
      "outputs": [
        {
          "internalType": "bytes32",
          "name": "",
          "type": "bytes32"
        }
      ],
      "stateMutability": "view",
      "type": "function"
    },
    {
      "inputs": [],
      "name": "PERMIT_TYPEHASH",
      "outputs": [
        {
          "internalType": "bytes32",
          "name": "",
          "type": "bytes32"
        }
      ],
      "stateMutability": "view",
      "type": "function"
    },
    {
      "inputs": [],
      "name": "XETH_LOCKER_ROLE",
      "outputs": [
        {
          "internalType": "bytes32",
          "name": "",
          "type": "bytes32"
        }
      ],
      "stateMutability": "view",
      "type": "function"
    },
    {
      "inputs": [
        {
          "internalType": "address",
          "name": "",
          "type": "address"
        },
        {
          "internalType": "address",
          "name": "",
          "type": "address"
        }
      ],
      "name": "allowance",
      "outputs": [
        {
          "internalType": "uint256",
          "name": "",
          "type": "uint256"
        }
      ],
      "stateMutability": "view",
      "type": "function"
    },
    {
      "inputs": [
        {
          "internalType": "address",
          "name": "guy",
          "type": "address"
        },
        {
          "internalType": "uint256",
          "name": "wad",
          "type": "uint256"
        }
      ],
      "name": "approve",
      "outputs": [
        {
          "internalType": "bool",
          "name": "",
          "type": "bool"
        }
      ],
      "stateMutability": "nonpayable",
      "type": "function"
    },
    {
      "inputs": [
        {
          "internalType": "address",
          "name": "",
          "type": "address"
        }
      ],
      "name": "balanceOf",
      "outputs": [
        {
          "internalType": "uint256",
          "name": "",
          "type": "uint256"
        }
      ],
      "stateMutability": "view",
      "type": "function"
    },
    {
      "inputs": [],
      "name": "decimals",
      "outputs": [
        {
          "internalType": "uint8",
          "name": "",
          "type": "uint8"
        }
      ],
      "stateMutability": "view",
      "type": "function"
    },
    {
      "inputs": [],
      "name": "deposit",
      "outputs": [],
      "stateMutability": "payable",
      "type": "function"
    },
    {
      "inputs": [
        {
          "internalType": "bytes32",
          "name": "role",
          "type": "bytes32"
        }
      ],
      "name": "getRoleAdmin",
      "outputs": [
        {
          "internalType": "bytes32",
          "name": "",
          "type": "bytes32"
        }
      ],
      "stateMutability": "view",
      "type": "function"
    },
    {
      "inputs": [
        {
          "internalType": "bytes32",
          "name": "role",
          "type": "bytes32"
        },
        {
          "internalType": "uint256",
          "name": "index",
          "type": "uint256"
        }
      ],
      "name": "getRoleMember",
      "outputs": [
        {
          "internalType": "address",
          "name": "",
          "type": "address"
        }
      ],
      "stateMutability": "view",
      "type": "function"
    },
    {
      "inputs": [
        {
          "internalType": "bytes32",
          "name": "role",
          "type": "bytes32"
        }
      ],
      "name": "getRoleMemberCount",
      "outputs": [
        {
          "internalType": "uint256",
          "name": "",
          "type": "uint256"
        }
      ],
      "stateMutability": "view",
      "type": "function"
    },
    {
      "inputs": [
        {
          "internalType": "bytes32",
          "name": "role",
          "type": "bytes32"
        },
        {
          "internalType": "address",
          "name": "account",
          "type": "address"
        }
      ],
      "name": "grantRole",
      "outputs": [],
      "stateMutability": "nonpayable",
      "type": "function"
    },
    {
      "inputs": [
        {
          "internalType": "bytes32",
          "name": "role",
          "type": "bytes32"
        },
        {
          "internalType": "address",
          "name": "account",
          "type": "address"
        }
      ],
      "name": "hasRole",
      "outputs": [
        {
          "internalType": "bool",
          "name": "",
          "type": "bool"
        }
      ],
      "stateMutability": "view",
      "type": "function"
    },
    {
      "inputs": [],
      "name": "name",
      "outputs": [
        {
          "internalType": "string",
          "name": "",
          "type": "string"
        }
      ],
      "stateMutability": "view",
      "type": "function"
    },
    {
      "inputs": [
        {
          "internalType": "address",
          "name": "",
          "type": "address"
        }
      ],
      "name": "nonces",
      "outputs": [
        {
          "internalType": "uint256",
          "name": "",
          "type": "uint256"
        }
      ],
      "stateMutability": "view",
      "type": "function"
    },
    {
      "inputs": [
        {
          "internalType": "address",
          "name": "owner",
          "type": "address"
        },
        {
          "internalType": "address",
          "name": "spender",
          "type": "address"
        },
        {
          "internalType": "uint256",
          "name": "value",
          "type": "uint256"
        },
        {
          "internalType": "uint256",
          "name": "deadline",
          "type": "uint256"
        },
        {
          "internalType": "uint8",
          "name": "v",
          "type": "uint8"
        },
        {
          "internalType": "bytes32",
          "name": "r",
          "type": "bytes32"
        },
        {
          "internalType": "bytes32",
          "name": "s",
          "type": "bytes32"
        }
      ],
      "name": "permit",
      "outputs": [],
      "stateMutability": "nonpayable",
      "type": "function"
    },
    {
      "inputs": [
        {
          "internalType": "bytes32",
          "name": "role",
          "type": "bytes32"
        },
        {
          "internalType": "address",
          "name": "account",
          "type": "address"
        }
      ],
      "name": "renounceRole",
      "outputs": [],
      "stateMutability": "nonpayable",
      "type": "function"
    },
    {
      "inputs": [
        {
          "internalType": "bytes32",
          "name": "role",
          "type": "bytes32"
        },
        {
          "internalType": "address",
          "name": "account",
          "type": "address"
        }
      ],
      "name": "revokeRole",
      "outputs": [],
      "stateMutability": "nonpayable",
      "type": "function"
    },
    {
      "inputs": [],
      "name": "symbol",
      "outputs": [
        {
          "internalType": "string",
          "name": "",
          "type": "string"
        }
      ],
      "stateMutability": "view",
      "type": "function"
    },
    {
      "inputs": [],
      "name": "totalSupply",
      "outputs": [
        {
          "internalType": "uint256",
          "name": "",
          "type": "uint256"
        }
      ],
      "stateMutability": "view",
      "type": "function"
    },
    {
      "inputs": [
        {
          "internalType": "address",
          "name": "dst",
          "type": "address"
        },
        {
          "internalType": "uint256",
          "name": "wad",
          "type": "uint256"
        }
      ],
      "name": "transfer",
      "outputs": [
        {
          "internalType": "bool",
          "name": "",
          "type": "bool"
        }
      ],
      "stateMutability": "nonpayable",
      "type": "function"
    },
    {
      "inputs": [
        {
          "internalType": "address",
          "name": "src",
          "type": "address"
        },
        {
          "internalType": "address",
          "name": "dst",
          "type": "address"
        },
        {
          "internalType": "uint256",
          "name": "wad",
          "type": "uint256"
        }
      ],
      "name": "transferFrom",
      "outputs": [
        {
          "internalType": "bool",
          "name": "",
          "type": "bool"
        }
      ],
      "stateMutability": "nonpayable",
      "type": "function"
    },
    {
      "inputs": [
        {
          "internalType": "address",
          "name": "xlocker_",
          "type": "address"
        }
      ],
      "name": "transferXlocker",
      "outputs": [],
      "stateMutability": "nonpayable",
      "type": "function"
    },
    {
      "inputs": [
        {
          "internalType": "uint256",
          "name": "wad",
          "type": "uint256"
        }
      ],
      "name": "withdraw",
      "outputs": [],
      "stateMutability": "nonpayable",
      "type": "function"
    },
    {
      "inputs": [
        {
          "internalType": "uint256",
          "name": "wad",
          "type": "uint256"
        },
        {
          "internalType": "address",
          "name": "dst",
          "type": "address"
        }
      ],
      "name": "xlockerMint",
      "outputs": [],
      "stateMutability": "nonpayable",
      "type": "function"
    },
    {
      "stateMutability": "payable",
      "type": "receive"
    }
  ],
  "bytecode": "0x60a060408190528060526200198a8239604051908190036052019020608052503480156200002c57600080fd5b506040805180820190915260178082527f786c6f636b2e65746820577261707065642045746865720000000000000000006020909201918252620000739160979162000217565b50604080518082019091526004808252630b08aa8960e31b6020909201918252620000a19160989162000217565b5060998054601260ff1990911617610100600160a81b0319166101003390810291909117909155620000d690600090620000dc565b620002b9565b620000f182826001600160e01b03620000f516565b5050565b60008281526065602090815260409091206200011c918390620013bf62000179821b17901c565b15620000f157620001356001600160e01b03620001a216565b6001600160a01b0316816001600160a01b0316837f2f8788117e7eff1d82e926ec794901d17c78024a50270940304540a733656f0d60405160405180910390a45050565b600062000199836001600160a01b0384166001600160e01b03620001a716565b90505b92915050565b335b90565b6000620001be83836001600160e01b03620001ff16565b620001f6575081546001818101845560008481526020808220909301849055845484825282860190935260409020919091556200019c565b5060006200019c565b60009081526001919091016020526040902054151590565b828054600181600116156101000203166002900490600052602060002090601f016020900481019282601f106200025a57805160ff19168380011785556200028a565b828001600101855582156200028a579182015b828111156200028a5782518255916020019190600101906200026d565b50620002989291506200029c565b5090565b620001a491905b80821115620002985760008155600101620002a3565b6080516116b1620002d960003980610ae75280610e8d52506116b16000f3fe60806040526004361061016a5760003560e01c80639010d07c116100d1578063ca15c8731161008a578063d505accf11610064578063d505accf14610593578063d547741f146105f1578063da64b0131461062a578063dd62ed3e1461065d57610179565b8063ca15c8731461054c578063cceb6de114610576578063d0e30db01461058b57610179565b80639010d07c1461042b57806391d148541461047757806395d89b41146104b0578063979eb137146104c5578063a217fddf146104fe578063a9059cbb1461051357610179565b80632f2ff15d116101235780632f2ff15d1461031357806330adf81f1461034c578063313ce5671461036157806336568abe1461038c57806370a08231146103c55780637ecebe00146103f857610179565b806306fdde031461017e578063095ea7b31461020857806318160ddd1461025557806323b872dd1461027c578063248a9ca3146102bf5780632e1a7d4d146102e957610179565b3661017957610177610698565b005b600080fd5b34801561018a57600080fd5b506101936106ef565b6040805160208082528351818301528351919283929083019185019080838360005b838110156101cd5781810151838201526020016101b5565b50505050905090810190601f1680156101fa5780820380516001836020036101000a031916815260200191505b509250505060405180910390f35b34801561021457600080fd5b506102416004803603604081101561022b57600080fd5b506001600160a01b03813516906020013561077d565b604080519115158252519081900360200190f35b34801561026157600080fd5b5061026a610794565b60408051918252519081900360200190f35b34801561028857600080fd5b506102416004803603606081101561029f57600080fd5b506001600160a01b0381358116916020810135909116906040013561079a565b3480156102cb57600080fd5b5061026a600480360360208110156102e257600080fd5b5035610936565b3480156102f557600080fd5b506101776004803603602081101561030c57600080fd5b503561094b565b34801561031f57600080fd5b506101776004803603604081101561033657600080fd5b50803590602001356001600160a01b0316610a79565b34801561035857600080fd5b5061026a610ae5565b34801561036d57600080fd5b50610376610b09565b6040805160ff9092168252519081900360200190f35b34801561039857600080fd5b50610177600480360360408110156103af57600080fd5b50803590602001356001600160a01b0316610b12565b3480156103d157600080fd5b5061026a600480360360208110156103e857600080fd5b50356001600160a01b0316610b73565b34801561040457600080fd5b5061026a6004803603602081101561041b57600080fd5b50356001600160a01b0316610b85565b34801561043757600080fd5b5061045b6004803603604081101561044e57600080fd5b5080359060200135610b97565b604080516001600160a01b039092168252519081900360200190f35b34801561048357600080fd5b506102416004803603604081101561049a57600080fd5b50803590602001356001600160a01b0316610bbc565b3480156104bc57600080fd5b50610193610bda565b3480156104d157600080fd5b50610177600480360360408110156104e857600080fd5b50803590602001356001600160a01b0316610c35565b34801561050a57600080fd5b5061026a610ce3565b34801561051f57600080fd5b506102416004803603604081101561053657600080fd5b506001600160a01b038135169060200135610ce8565b34801561055857600080fd5b5061026a6004803603602081101561056f57600080fd5b5035610cf5565b34801561058257600080fd5b5061026a610d0c565b610177610698565b34801561059f57600080fd5b50610177600480360360e08110156105b657600080fd5b506001600160a01b03813581169160208101359091169060408101359060608101359060ff6080820135169060a08101359060c00135610d34565b3480156105fd57600080fd5b506101776004803603604081101561061457600080fd5b50803590602001356001600160a01b031661111f565b34801561063657600080fd5b506101776004803603602081101561064d57600080fd5b50356001600160a01b0316611178565b34801561066957600080fd5b5061026a6004803603604081101561068057600080fd5b506001600160a01b0381358116916020013516611232565b336000818152609b6020908152604091829020805434908101909155609a805482019055825190815291517fe1fffcc4923d04b559f4d29a8bfc6cda04eb5b0d3c460751c2402c5c5cc9109c9281900390910190a2565b6097805460408051602060026001851615610100026000190190941693909304601f810184900484028201840190925281815292918301828280156107755780601f1061074a57610100808354040283529160200191610775565b820191906000526020600020905b81548152906001019060200180831161075857829003601f168201915b505050505081565b600061078a33848461124f565b5060015b92915050565b609a5481565b6001600160a01b0383166000908152609b60205260408120548211156107f2576040805162461bcd60e51b81526020600482015260086024820152672162616c616e636560c01b604482015290519081900360640190fd5b6001600160a01b038416331480159061083057506001600160a01b0384166000908152609d6020908152604080832033845290915290205460001914155b156108c5576001600160a01b0384166000908152609d6020908152604080832033845290915290205482111561089a576040805162461bcd60e51b815260206004820152600a60248201526921616c6c6f77616e636560b01b604482015290519081900360640190fd5b6001600160a01b0384166000908152609d602090815260408083203384529091529020805483900390555b6001600160a01b038085166000818152609b6020908152604080832080548890039055938716808352918490208054870190558351868152935191937fddf252ad1be2c89b69c2b068fc378daa952ba7f163c4a11628f55a4df523b3ef929081900390910190a35060019392505050565b60009081526065602052604090206002015490565b336000908152609b602052604090205481111561099a576040805162461bcd60e51b81526020600482015260086024820152672162616c616e636560c01b604482015290519081900360640190fd5b336000818152609b602052604080822080548590039055609a805485900390555190919083908381818185875af1925050503d80600081146109f8576040519150601f19603f3d011682016040523d82523d6000602084013e6109fd565b606091505b5050905080610a3f576040805162461bcd60e51b815260206004820152600960248201526821776974686472617760b81b604482015290519081900360640190fd5b60408051838152905133917f7fcf532c15f0a6db0bd6d0e038bea71d30d808c7d98cb3bf7268a95bf5081b65919081900360200190a25050565b600082815260656020526040902060020154610a9c90610a976112b1565b610bbc565b610ad75760405162461bcd60e51b815260040180806020018281038252602f81526020018061159c602f913960400191505060405180910390fd5b610ae182826112b5565b5050565b7f000000000000000000000000000000000000000000000000000000000000000081565b60995460ff1681565b610b1a6112b1565b6001600160a01b0316816001600160a01b031614610b695760405162461bcd60e51b815260040180806020018281038252602f81526020018061164d602f913960400191505060405180910390fd5b610ae18282611324565b609b6020526000908152604090205481565b609c6020526000908152604090205481565b6000828152606560205260408120610bb5908363ffffffff61139316565b9392505050565b6000828152606560205260408120610bb5908363ffffffff61139f16565b6098805460408051602060026001851615610100026000190190941693909304601f810184900484028201840190925281815292918301828280156107755780601f1061074a57610100808354040283529160200191610775565b60995461010090046001600160a01b03163314610c84576040805162461bcd60e51b815260206004820152600860248201526710bc3637b1b5b2b960c11b604482015290519081900360640190fd5b6001600160a01b0381166000818152609b60209081526040808320805487019055609a805487019055805186815290517fddf252ad1be2c89b69c2b068fc378daa952ba7f163c4a11628f55a4df523b3ef929181900390910190a35050565b600081565b6000610bb533848461079a565b600081815260656020526040812061078e906113b4565b604080516f584554485f4c4f434b45525f524f4c4560801b8152905190819003601001902081565b83421115610d89576040805162461bcd60e51b815260206004820152601c60248201527f584554483a3a7065726d69743a2045787069726564207065726d697400000000604482015290519081900360640190fd5b60405146906000908060526115fb82396052019050604051809103902060976040518082805460018160011615610100020316600290048015610e035780601f10610de1576101008083540402835291820191610e03565b820191906000526020600020905b815481529060010190602001808311610def575b50509150506040518091039020604051806040016040528060018152602001603160f81b81525080519060200120843060405160200180868152602001858152602001848152602001838152602001826001600160a01b03166001600160a01b031681526020019550505050505060405160208183030381529060405280519060200120905060007f00000000000000000000000000000000000000000000000000000000000000008a8a8a609c60008f6001600160a01b03166001600160a01b031681526020019081526020016000206000815480929190600101919050558b60405160200180878152602001866001600160a01b03166001600160a01b03168152602001856001600160a01b03166001600160a01b03168152602001848152602001838152602001828152602001965050505050505060405160208183030381529060405280519060200120905060008282604051602001808061190160f01b81525060020183815260200182815260200192505050604051602081830303815290604052805190602001209050600060018289898960405160008152602001604052604051808581526020018460ff1660ff1681526020018381526020018281526020019450505050506020604051602081039080840390855afa158015610ff2573d6000803e3d6000fd5b5050604051601f1901519150506001600160a01b0381161580159061102857508b6001600160a01b0316816001600160a01b0316145b611079576040805162461bcd60e51b815260206004820152601c60248201527f584554483a3a7065726d69743a20696e76616c6964207065726d697400000000604482015290519081900360640190fd5b89609d60008e6001600160a01b03166001600160a01b0316815260200190815260200160002060008d6001600160a01b03166001600160a01b03168152602001908152602001600020819055508a6001600160a01b03168c6001600160a01b03167f8c5be1e5ebec7d5bd14f71427d1e84f3dd0314c0f7b2291e5b200ac8c7c3b9258c6040518082815260200191505060405180910390a3505050505050505050505050565b60008281526065602052604090206002015461113d90610a976112b1565b610b695760405162461bcd60e51b81526004018080602001828103825260308152602001806115cb6030913960400191505060405180910390fd5b60995461010090046001600160a01b031633146111d2576040805162461bcd60e51b81526020600482015260136024820152723c3637b1b5b2b9109eb6b9b39739b2b73232b960691b604482015290519081900360640190fd5b609980546001600160a01b03808416610100908102610100600160a81b03199093169290921792839055604080516f584554485f4c4f434b45525f524f4c4560801b8152905190819003601001902061122f939092900416610ad7565b50565b609d60209081526000928352604080842090915290825290205481565b6001600160a01b038084166000818152609d6020908152604080832094871680845294825291829020859055815185815291517f8c5be1e5ebec7d5bd14f71427d1e84f3dd0314c0f7b2291e5b200ac8c7c3b9259281900390910190a3505050565b3390565b60008281526065602052604090206112d3908263ffffffff6113bf16565b15610ae1576112e06112b1565b6001600160a01b0316816001600160a01b0316837f2f8788117e7eff1d82e926ec794901d17c78024a50270940304540a733656f0d60405160405180910390a45050565b6000828152606560205260409020611342908263ffffffff6113d416565b15610ae15761134f6112b1565b6001600160a01b0316816001600160a01b0316837ff6391f5c32d9c69d2a47ea670b442974b53935d1edc7fd64eb21e047a839171b60405160405180910390a45050565b6000610bb583836113e9565b6000610bb5836001600160a01b03841661144d565b600061078e82611465565b6000610bb5836001600160a01b038416611469565b6000610bb5836001600160a01b0384166114b3565b8154600090821061142b5760405162461bcd60e51b815260040180806020018281038252602281526020018061157a6022913960400191505060405180910390fd5b82600001828154811061143a57fe5b9060005260206000200154905092915050565b60009081526001919091016020526040902054151590565b5490565b6000611475838361144d565b6114ab5750815460018181018455600084815260208082209093018490558454848252828601909352604090209190915561078e565b50600061078e565b6000818152600183016020526040812054801561156f57835460001980830191908101906000908790839081106114e657fe5b906000526020600020015490508087600001848154811061150357fe5b60009182526020808320909101929092558281526001898101909252604090209084019055865487908061153357fe5b6001900381819060005260206000200160009055905586600101600087815260200190815260200160002060009055600194505050505061078e565b600091505061078e56fe456e756d657261626c655365743a20696e646578206f7574206f6620626f756e6473416363657373436f6e74726f6c3a2073656e646572206d75737420626520616e2061646d696e20746f206772616e74416363657373436f6e74726f6c3a2073656e646572206d75737420626520616e2061646d696e20746f207265766f6b65454950373132446f6d61696e28737472696e67206e616d652c737472696e672076657273696f6e2c75696e7432353620636861696e49642c6164647265737320766572696679696e67436f6e747261637429416363657373436f6e74726f6c3a2063616e206f6e6c792072656e6f756e636520726f6c657320666f722073656c66a2646970667358221220147cd6d013b3235d2c0a02840bac084558342cf96ee25a5d646a36eaa5c1e48764736f6c634300060600335065726d69742861646472657373206f776e65722c61646472657373207370656e6465722c75696e743235362076616c75652c75696e74323536206e6f6e63652c75696e7432353620646561646c696e6529",
  "linkReferences": {},
  "deployedLinkReferences": {}
}